:100000002AC1000059C1000057C1000055C10000BD
:1000100053C1000051C100004FC100004DC100009C
:100020004BC1000049C1000047C1000045C10000AC
:1000300043C1000041C100003FC100003DC10000BC
:100040003BC1000039C1000037C1000035C10000CC
:1000500033C1000031C100002FC100000C94620FB9
:100060002BC100000C942C0F0C94020F25C1000032
:1000700023C1000021C100001FC100001DC10000FC
:100080001BC1000019C1000017C1000015C100000C
:1000900013C1000011C100000FC100000DC100001C
:1000A0000BC1000009C1000007C1000005C100002C
:1000B00003C1000001C10000FFC00000FDC000003E
:1000C000FBC00000F9C00000F7C00000F5C0000050
:1000D000F3C00000F1C00000EFC00000EDC0000060
:1000E000EBC0000000020304050100000A0B020936
:1000F0000C0D0E08070304010000000000000000C2
:1001000000000000000000000000000000000000EF
:1001100000000000000012111000000000000000AC
:1001200000000000000000000000000000000000CF
:100130000D0A496E697469616C697A6174696F6EE0
:1001400020636F6D706C6574652E000D0A466169E1
:100150006C75726520746F20636F6E6E65637420BA
:10016000746F2055534220536869656C642E0000FB
:100170000100080002000400200010004000800080
:100180000000000100020020001000400080000478
:1001900000080000002200250028002B002E00315E
:1001A00000340002010000050108010B01000021DC
:1001B00000240027002A002D003000330001010038
:1001C00000040107010A01050505050705080808DF
:1001D00008020202020A0A080804040404010101D8
:1001E00001010101010303030303030303040707E0
:1001F000070C0C0C0C0C0C0C0C020202020606067E
:1002000006060606060B0B0B0B0B0B0B0B01021065
:100210002020080810204010204080020102010820
:1002200004020101020408102040808040201008D0
:100230000402018004020180402010080402010829
:100240000402010102040810204080010204081089
:1002500020408000AC0F11241FBECFEFD1E2DEBFE3
:10026000CDBF00E00CBF12E0A0E0B2E0ECE7F0E3AD
:1002700000E00BBF02C007900D92AC36B107D9F772
:1002800024E0ACE6B2E001C01D92AC35B207E1F764
:1002900011E0CBE2D1E000E006C021970109802FF8
:1002A000FE010E942618CA32D10780E00807A9F78C
:1002B0000E947B100C943C18A3CE8CBD9DBD08956C
:1002C000CF92DF92EF92FF920F931F93CF93DF9322
:1002D000EC018B017A01688179818A819B810E947E
:1002E000ED179B01AC01AFEFB0E00E94E51697015E
:1002F000FF0C440B550B0E94C916C12CD12C760162
:1003000057FD15C08091190364E670E0882311F051
:100310006FEF70E0072E000C880B990B62177307C4
:100320008407950754F50E94B6156B017C01C882BD
:10033000D982EA82FB82F80160817181072E000C6C
:10034000880B990B0E94B6159B01AC01C701B60141
:100350000E94B01587FF04C0188219821A821B827E
:10036000688179818A819B81DF91CF911F910F9163
:10037000FF90EF90DF90CF900895CA01B901D3CFDD
:1003800090E0FC01E35FFD4F249189539E4FFC01F7
:100390008491882399F090E0880F991FFC01E35520
:1003A000FE4FA591B491FC01ED56FE4F85919491BD
:1003B0008FB7F894EC91E22BEC938FBF0895AF9236
:1003C000BF92CF92DF92EF92FF920F931F93CF9342
:1003D000DF936C017B018B01040F151FEB015E01A4
:1003E000AE18BF08C017D10759F06991D601ED9139
:1003F000FC910190F081E02DC6011995892B79F7C8
:10040000C501DF91CF911F910F91FF90EF90DF9089
:10041000CF90BF90AF900895FC01538D448D252F50
:1004200030E0842F90E0821B930B541710F0CF968E
:10043000089501970895FC01918D828D981761F0C0
:10044000A28DAE0FBF2FB11D5D968C91928D9F5FD7
:100450009F73928F90E008958FEF9FEF0895FC01B6
:10046000918D828D981731F0828DE80FF11D858D69
:1004700090E008958FEF9FEF0895FC01918D228DFC
:10048000892F90E0805C9F4F821B91098F73992781
:1004900008958BE792E0F1DF21E0892B09F420E059
:1004A000822F0895FC01A48DA80FB92FB11DA35A66
:1004B000BF4F2C91848D90E001968F739927848F84
:1004C000A689B7892C93A089B1898C9183708064A7
:1004D0008C93938D848D981306C00288F389E02D48
:1004E00080818F7D80830895EF92FF920F931F93F9
:1004F000CF93DF93EC0181E0888F9B8D8C8D9813D7
:100500001AC0E889F989808185FF15C09FB7F894E2
:10051000EE89FF896083E889F9898081837080642E
:1005200080839FBF81E090E0DF91CF911F910F9179
:10053000FF90EF900895F62E0B8D10E00F5F1F4F88
:100540000F731127E02E8C8D8E110BC00FB607FC98
:10055000FACFE889F989808185FFF5CFCE01A2DF46
:10056000F2CFEB8DEC0FFD2FF11DE35AFF4FF08220
:100570009FB7F8940B8FEA89FB8980818062D0CF86
:100580000F931F93CF93DF938C01D0E0C0E0F8016D
:10059000EC0FFD1F6491662339F08BE792E0A4DF36
:1005A000892B11F02196F3CFCE01DF91CF911F91CE
:1005B0000F910895CF93DF93EC01888D8823B1F0DC
:1005C000AA89BB89E889F9898C9185FD03C080815E
:1005D00086FD0CC00FB607FCF7CF8C9185FFF2CFDC
:1005E000808185FFEDCFCE015DDFEACFDF91CF9136
:1005F000089580E090E0892B21F04BDF81110E946B
:10060000000080E090E0892B49F080E090E0892BA9
:1006100029F00E94000081110E94000080E090E01B
:10062000892B49F080E090E0892B29F00E9400009E
:1006300081110E94000080E090E0892B49F080E069
:1006400090E0892B29F00E94000081110C94000099
:100650000895282F30E0F901E651FF4F9491F901F8
:10066000E35FFD4F449129533E4FF901249122232A
:1006700009F435C0992311F191509231F8F4E92F22
:10068000F0E08827E95BFC4F8F4F0C942618780325
:100690007C035903700374035E037F03850389039E
:1006A0008F03930397039D03A1035E03A503AB038D
:1006B000AF03809180008F7780938000E22FF0E07D
:1006C000EE0FFF1FED56FE4FA591B4918FB7F89432
:1006D000EC91611148C040954E234C938FBF089513
:1006E000809180008F7DE8CF80918000877FE4CF6C
:1006F00084B58F7784BDE2CF84B58F7DFBCF8091A9
:10070000B0008F778093B000D9CF8091B0008F7DFB
:10071000F9CF809190008F7780939000CFCF809118
:1007200090008F7DF9CF80919000877FF5CF8091E9
:10073000A0008F778093A000C1CF8091A0008F7D13
:10074000F9CF8091A000877FF5CF809120018F772E
:1007500080932001B3CF809120018F7DF9CF8091CC
:100760002001877FF5CF4E2BB8CF1F93CF93DF9318
:10077000182FEB0105DE209731F460E0812FDF9127
:10078000CF911F9166CFCF3FD10511F461E0F6CF35
:10079000E12FF0E0E651FF4FE491E150E23108F043
:1007A000B3C0F0E08827E852FC4F8F4F0C94261816
:1007B000EA03F203F70301040B04840415041D0487
:1007C00025042F043904430452045C0484046604A1
:1007D00070047A0484B5806884BDC7BDDF91CF9171
:1007E0001F91089584B5806284BDC8BDF7CF809104
:1007F0008000806880938000D0938900C093880037
:10080000EDCF80918000806280938000D0938B0038
:10081000C0938A00E3CF809180008860809380003D
:10082000D0938D00C0938C00D9CF8091B0008068A8
:100830008093B000C093B300D1CF8091B0008062AC
:100840008093B000C093B400C9CF809190008068BD
:1008500080939000D0939900C0939800BFCF80916F
:100860009000806280939000D0939B00C0939A0088
:10087000B5CF80919000886080939000D0939D00C8
:10088000C0939C00ABCF8091A00080688093A000B3
:100890008091A0008F7B8093A000D093A900C0938B
:1008A000A8009CCF8091A00080628093A000D0938C
:1008B000AB00C093AA0092CF8091A0008860809383
:1008C000A000D093AD00C093AC0088CF80912001F0
:1008D000806880932001D0932901C09328017ECFA6
:1008E00080912001806280932001D0932B01C093DE
:1008F0002A0174CF80912001886080932001D093D9
:100900002D01C0932C016ACFC038D1050CF03ECF29
:1009100034CF3FB7F8948091710290917202A09108
:100920007302B091740226B5A89B05C02F3F19F041
:100930000196A11DB11D3FBFBA2FA92F982F88275F
:10094000BC01CD01620F711D811D911D42E0660F3A
:10095000771F881F991F4A95D1F708958F929F920C
:10096000AF92BF92CF92DF92EF92FF924B015C0168
:10097000D0DF6B017C01CDDF6C197D098E099F09E9
:10098000683E734081059105B0F321E0821A910819
:10099000A108B10888EEC80E83E0D81EE11CF11C46
:1009A00081149104A104B10431F7FF90EF90DF901E
:1009B000CF90BF90AF909F908F9008952FB7F894ED
:1009C00060916D0270916E0280916F029091700241
:1009D0002FBF0895CF93DF93EC011A821B821C82F4
:1009E0001D821E828F819885DC01ED91FC9104802F
:1009F000F581E02D6985199519861FA280E0DF91A8
:100A0000CF9108956E3584E0780739F06D3A9BE117
:100A1000790719F06E32764141F481E0493197E06F
:100A2000590729F04139524011F080E008950895A6
:100A3000FC0187A10895FC0181850895DF92EF9262
:100A4000FF920F931F93CF93DF93EC0185E0E62E87
:100A5000F12CFE01869FE00DF11D1124908596FF7B
:100A600024C0192F177001E085E0D82E8FEF800F7A
:100A70008F3008F001E0602F70E0062FD69EF00165
:100A8000D79EF00D1124EC0FFD1F8085869586956D
:100A900086958770181701F16F5F7F4F603168F39B
:100AA0008D81811302C011501D8385E08E9DF00160
:100AB0008F9DF00D1124EC0FFD1F108681E08187C2
:100AC00012862296D783C683DF91CF911F910F9113
:100AD000FF90EF90DF900895CE01B0DFC7CFFC010B
:100AE00020812EBD9B012150310941F051810DB46F
:100AF00007FEFDCF4EB55EBD4193F5CF6150710944
:100B0000860F971F0DB407FEFDCF2EB5FC01208385
:100B10000895FC0121E0613499F49C01255B3F4F6D
:100B200061E0AC014E5F5F4F15866687178654877C
:100B3000438735962E173F07B9F7FC0115820895B4
:100B40003585631729F02F5F35962031C9F7089551
:100B5000622F74CFCF93DF93FC0167FD12C0283062
:100B600080F4442319F08581873059F0EF01A1E02A
:100B7000B0E08D85882349F111962596A031B10505
:100B8000C1F780E018C085E08A9FE0018B9FD00DFF
:100B90001124CE0FDF1F442389F081E488878581EB
:100BA0008F5F858325E02A9FC0012B9F900D112424
:100BB000E80FF91F8085DF91CF91089581E0888744
:100BC000F1CF2770687B622B0FC06623E1F267705C
:100BD000660F660F660F4423A1F3606485818F5F03
:100BE00085838770687F682B25E02A9FC0012B9F33
:100BF000900D1124E80FF91F6087862FDCCFFC01D0
:100C000021E0611102C0069608953585631739F019
:100C10002F5F35962031C9F790E080E00895069661
:100C200035E0239F800D911D1124089580E00895E3
:100C300081E0089508952C9808952C9A08950895B8
:100C40000F931F93CF93DF931F921F92CDB7DEB701
:100C5000182F062F80E591E030DBEDDF126019835D
:100C60000A8362E070E0CE01019639DFE6DF0F9083
:100C70000F90DF91CF911F910F9108958EBD0000CD
:100C80000DB407FEFDCF8EB50895FF920F931F930D
:100C9000CF93DF93182FF62EEA0180E591E00DDB6C
:100CA000CADF812F8260EADF0F2D10E0FF2019F0EC
:100CB000B801CE0114DFC00FD11FBFDFCE01DF911D
:100CC000CF911F910F91FF900895CF93C82F80E58A
:100CD00091E0F3DAB0DF8C2FD1DF80E0CFDFC82FD7
:100CE000ACDF8C2FCF9108958F929F92AF92BF92DD
:100CF000CF92DF92EF92FF920F931F93CF93DF93E8
:100D0000882E962E5A015ADE6B017C0128E8C20E0D
:100D100023E1D21EE11CF11C10E000E0D0E0C0E0B5
:100D200098284CDE6C197D098E099F0997FF19C020
:100D3000692D80EF85DF42DE6C197D098E099F09E0
:100D400097FF07C088ECC1DF87FFF5CF60E888EC2C
:100D500077DF88EFBADFC82FCF70C43081F0CE3094
:100D6000B9F08C2FDF91CF911F910F91FF90EF90F1
:100D7000DF90CF90BF90AF909F908F9008950F5FBE
:100D80001F4FA114B10469F20A151B0551F6E9CFF2
:100D9000DF5FD33009F0C5CFE4CF2F923F924F925F
:100DA0005F926F927F928F929F92AF92BF92CF92FB
:100DB000DF92EF92FF920F931F93CF93DF9300D0B8
:100DC0001F921F92CDB7DEB79D838C834B017A01B2
:100DD0006901FC0111818FEF810F803408F0B1C0EF
:100DE000EDDD2B013C01F8E84F0EF3E15F1E611CC5
:100DF000711CEC81FD81828160E480FD60E888EEF9
:100E00001FDF312C812F90E09A838983E114F10454
:100E100009F43EC009811A81E016F10608F4870141
:100E20000B83A601602F80E130DF602F88E308DFAD
:100E3000EC81FD816081606280EF02DF88EC45DF3C
:100E400087FFFCCF60E888ECFBDE88EF3EDF8F7029
:100E5000382EB12CA12C212C3320D9F1AFDD64190F
:100E600075098609970997FF34C0F6E03F1609F423
:100E700055C02EE0321691F184E0381209C09FEF80
:100E8000A91AB90A8114910469F1A814B90451F599
:100E900088EF1BDFEC81FD81928185FB90F99283C5
:100EA000832D0F900F900F900F900F90DF91CF91A7
:100EB0001F910F91FF90EF90DF90CF90BF90AF9078
:100EC0009F908F907F906F905F904F903F902F906A
:100ED0000895E01AF10AC00ED11E98CF2394E3E0E2
:100EE0002E16B1F260E088E3ABDEF601608180E1AE
:100EF000A7DE6B8188E3A4DEEC81FD816081606206
:100F000080EF9EDE88ECE1DE87FFFCCF60E888ECB6
:100F100097DE88EFDADE8F70382E9ECF88EFD5DE31
:100F200085FB882780F9F1E08F27EC81FD81928194
:100F300080FB90F9928360E490FD60E888EE80DEAB
:100F4000D1CF8AED382EACCFAF92BF92CF92DF9245
:100F5000EF92FF920F931F93CF93DF93EC01B62E86
:100F6000A42E69014CDE7C0186EDE114F10409F444
:100F700044C0D701ED91FC91119787ED309709F4AA
:100F80003CC013969C9180E0981731F02081A21606
:100F900029F033968F5FF8CFF0E0E0E0D601ED93D3
:100FA000FC938BED309749F12281269526952031CF
:100FB00008F02FE081E090E0A0E0B0E004C0880FEE
:100FC000991FAA1FBB1F2A95D2F70197F801918399
:100FD00080836B2D80EE34DE88ED77DED7011496AA
:100FE0009C91682F697F992329F0CA58DF4F688147
:100FF0006260682B88ED24DE80E0DF91CF911F9145
:101000000F91FF90EF90DF90CF90BF90AF90089539
:10101000CF92DF92EF92FF920F931F93CF93DF93C4
:1010200000D01F92CDB7DEB7613091F0E0F16230B1
:10103000B1F16330B1F10F900F900F900F90DF91ED
:10104000CF911F910F91FF90EF90DF90CF90089577
:1010500024E07A01FC01C780D08430E0D901AA0FD6
:10106000BB1FA20FB31FAE0FBF1F1A964C91618515
:101070001C821B821A8219828E010F5F1F4F9E01F4
:101080002D5F3F4FC60160DF8111D5CF69817A8125
:10109000970144E050E08B819C817FDECCCF26E03D
:1010A000D8CF28E0D6CF22E0D4CF88EF0EDE807CE8
:1010B0008034A1F018F48823E1F00895803819F005
:1010C000803CA9F0089588ED00DE81FD0BC069EC3D
:1010D00088EDB6DD82E080937A02089588EDF5DD33
:1010E00081FDF5CF6BEC88EDABDD83E0F4CF81E0E3
:1010F000F2CF61ED88EDA4DD10927A020895CF92CF
:10110000DF92FF920F931F93CF93DF93F62E01E0B0
:10111000C82FD0E0CC0FDD1FC55CDB4F6E0188818E
:101120009981DC01ED91FC910280F381E02D2F2D5E
:1011300040E060E01995182F803E29F561E088EEC7
:101140007FDD66E670E080E090E008DCF6018081FB
:101150009181DC01ED91FC910190F081E02D2F2D2A
:1011600040E060E01995182F8D3029F58FEF800F42
:10117000833078F061E088EE63DD66E670E080E061
:1011800090E0ECDB0FC08D3059F48FEF800F83308F
:1011900048F464E670E080E090E0E0DB0F5FBFCFF2
:1011A0008823A1F2812FDF91CF911F910F91FF90A2
:1011B000DF90CF9008958823A9F3DCCF2F923F9240
:1011C0004F925F926F927F928F929F92AF92BF9257
:1011D000CF92DF92EF92FF920F931F93CF93DF9303
:1011E0007B013A016901F901A080B180FB013180E6
:1011F000F90111821082FB01828160E181FD60E2D0
:1012000088EE1EDD2A2CA301F701608180E06CDDF1
:10121000582EF6E08F130EC088EF57DDF70192814C
:101220009D7F84FF9260928360E191FD60E288EE91
:1012300007DDE9CF811147C088EC47DD82FF57C049
:1012400080E343DD482E8A151B0411F008F0422C80
:10125000F60180819181E501C81BD90BD7FF02C03F
:10126000D0E0C0E0842C912C8C169D060CF4E40197
:1012700080E591E022D8DFDC88E000DDAE0170E09F
:1012800060E0C8010E943518209719F0BE01C8011E
:1012900026DC0C0F1D1FD1DC64E088ECD1DCF601EC
:1012A00080819181880E991E91828082431420F062
:1012B0008A149B0408F4A7CF88EF07DDF701928119
:1012C00084FB91F99283852DDF91CF911F910F912E
:1012D000FF90EF90DF90CF90BF90AF909F908F9056
:1012E0007F906F905F904F903F902F90089580EF88
:1012F000582EE9CF3F924F925F926F927F928F92DA
:101300009F92AF92BF92CF92DF92EF92FF920F9394
:101310001F93CF93DF93CDB7DEB72E970FB6F89418
:10132000DEBF0FBECDBF3C01F42E522E402E3C2C12
:10133000CBA0DCA01E861D861C861B868E01055F49
:101340001F4F9E01235F3F4FFFDD182F811162C0A9
:1013500059824A82EB823C821E821D82B886AF820D
:10136000AE014F5F5F4F68E080E28FDC4B855C85AC
:101370006F2D80E1B9DC182F81114CC0C114D1044C
:1013800091F1ED85FE85828157FE33C082608283B4
:10139000EE24E394A114B10409F455C09A86898619
:1013A0004B855C856D857E8586019E01275F3F4F5D
:1013B000C30104DF182F863069F488EF86DCED85E1
:1013C000FE8585FB882780F98E25928180FB91F927
:1013D0009283E0CF81111EC089859A85A81AB90A27
:1013E00088159905B8F64B855C8557FE0FC080EAD5
:1013F0000EC0816082836B857C859601A401CF013C
:10140000CCDC182F811106C04B855C8580E86F2DE0
:101410006BDC182F812F2E960FB6F894DEBF0FBE0F
:10142000CDBFDF91CF911F910F91FF90EF90DF9093
:10143000CF90BF90AF909F908F907F906F905F9074
:101440004F903F9008954B855C85112381F2E2CF48
:101450008F929F92AF92BF92CF92EF920F93CF93C2
:101460001F921F92912C812CB12CA12CC12CE62E05
:1014700005E020E040E060E03DDFC82F6CE271E075
:1014800080E090E06BDA0F900F908C2FCF910F914E
:10149000EF90CF90BF90AF909F908F9008952F9234
:1014A0003F924F925F926F927F928F929F92AF92F4
:1014B000BF92CF92EF92FF920F931F93CF93DF9340
:1014C000CDB7DEB764970FB6F894DEBF0FBECDBFC1
:1014D000DC0119963C9109ED311173C0022F142FD4
:1014E000F62E3C01FC0127803084D101ED91FC9166
:1014F0000190F081E02D60E0C10119952C01009769
:1015000009F487C0FC010190F081E02DFC8BEB8B8E
:10151000EF2B09F480C0C3010A96D20111969C9367
:101520008E9314960C93CE0101969F938F9382E134
:10153000882E912C92E1A92EB12CCC24C394E12CBD
:1015400006E020E840E060E0F30187819085D2DE8C
:10155000082FEB89FC89D201ED93FC930F900F903B
:10156000811148C089859A858E35F4E09F0741F046
:101570008D3A2BE1920721F08E32964109F045C059
:101580008B859C858931B7E09B0719F081399240A2
:10159000E1F5D101ED91FC910280F381E02D212F45
:1015A00040E06F2DC1011995F301818704ED882377
:1015B00041F08885838764E170E080E090E0CED9D7
:1015C00000EE802F64960FB6F894DEBF0FBECDBF3D
:1015D000DF91CF911F910F91FF90EF90CF90BF902F
:1015E000AF909F908F907F906F905F904F903F90C3
:1015F0002F9008958D3059F4D301ED91FC91048022
:10160000F581E02DC3011995DCCF01EDF5CF01EE99
:10161000F3CF06EDD6CF07EDD4CF8F929F92AF9246
:10162000BF92CF92DF92EF92FF920F931F93CF93CF
:10163000DF93EC01022FEF80F884D701ED91FC914C
:101640000190F081E02D6985C70119956C01892B06
:1016500079F416ED812FDF91CF911F910F91FF90BB
:10166000EF90DF90CF90BF90AF909F908F900895B4
:101670006CE271E080E090E071D969858F81988596
:10168000E7DE182F882351F0F6011482E881F981F2
:101690000480F581E02DCE011995DCCFD60114969A
:1016A0001C92D701ED91FC910190F081E02D6985AC
:1016B000C7011995009769F2FC0104838F81988511
:1016C0008E01065F1F4FF9840115110509F45AC0F8
:1016D0006F2D95DAFC01892B11F416EDD7CFF2822C
:1016E00011830083FF24F394F382FD8690E29E87AA
:1016F00084E08F87F88A998B8A8B23E02B8B9C8BD5
:101700008D8B2E8B9F8B888F25E0298F9A8F8B8FC7
:101710002C8F9D8F8E8F27E02F8F98A389A32AA3CC
:101720009BA38CA3E9846E2D8F81988568DAFC01D8
:10173000892B99F2E2821183008389E0838368EC2C
:1017400070E080E090E00AD91F921F92912C812CCA
:10175000B12CA12CC12CEE24E39409E020E04A85B1
:1017600069858F819885C6DD182F0F900F908111A4
:101770008DCFFA82FFA2CC57DF4F188219821A82CE
:101780001B8268CF18ED82CF2F923F924F925F92CB
:101790006F927F928F929F92AF92BF92CF92DF9281
:1017A000EF92FF920F931F93CF93DF93CDB7DEB7E6
:1017B0006F970FB6F894DEBF0FBECDBFDC019796D2
:1017C0002C91222309F4A1C07C018C010C571F4FDE
:1017D000F80180819181A281B381892B8A2B8B2B87
:1017E00009F0ADC0EBD8D8016D937D938D939C9398
:1017F0001397F70187A18111B3C022242394312CC0
:1018000081E06701B8E8CB0ED11CF701E757FF4F25
:10181000FF87EE87970122573F4F398B288BD701DF
:10182000AE56BF4FBB8BAA8B3B96FD8BEC8B285FD4
:101830003F4F3F8B2E8B1696B98FA88F3997FB871A
:10184000EA872A5031093B8F2A8F5096BD87AC8793
:101850007E96FD8FEC8F225E3F4F3F8F2E8F2F8223
:1018600099249A94920C20E230E03E832D83D70194
:101870001796AD90BC90189790E0FC01EE0FFF1FFB
:10188000E80FF91FEE0DFF1D428519966C911C8221
:101890001B821A8219828E010F5F1F4F9E012D5FDE
:1018A0003F4FC50151DB81110AC049815A816B81CB
:1018B0007C8186019E012B5F3F4FC5017FDC8D81BE
:1018C0009E81892BE9F0C114D104D1F0EE85FF850A
:1018D0008081D6019C91983009F0B1C0F701E20DEA
:1018E000F31D9281891709F4AAC08283882341F0ED
:1018F000D7019596ED91FC91309709F478C0199530
:10190000E4E02E16310409F053C180E06F960FB663
:10191000F894DEBF0FBECDBFDF91CF911F910F9125
:10192000FF90EF90DF90CF90BF90AF909F908F90FF
:101930007F906F905F904F903F902F9008953ED88A
:10194000D8018D909D90AD90BC90681979098A0955
:101950009B09693B7B40810591050CF043CF4DCF3E
:101960006701E8EACE0ED11C88E0D6018C934701CE
:10197000B9EA8B0E911CF40110825701FAEAAF0EFE
:10198000B11C8FE0D5018C93870105551F4F80EC6A
:10199000F8018083712CA601672DC70139DB739490
:1019A000F4E07F12F8CFD6011C92F4011082D50129
:1019B0001C9280E4F80180835701F3E0AF0EB11C64
:1019C00010E0D5018D915D01882321F0A601612FE2
:1019D000C7011EDB1F5F1430A1F70FCF3F8187E0E7
:1019E000323009F485E09FEF291A390A38CFE1E057
:1019F000F0E0992059F0B1E0E2E0F0E09B1631F020
:101A0000E2E09E1609F4D1C0E4E0F0E0EC51FF4FB3
:101A1000E491AC85BD851C92AC8DBD8D1C9288E097
:101A2000AE8DBF8D8C93D701A555BF4FEC5FE064A1
:101A3000EC934C855D85692DC701EADA61CF811190
:101A40001BC0AA85BB858C91837109F459CFEA8D9F
:101A5000FB8D8081823208F453CFF101EE0FFF1F1E
:101A6000E259FF4FEE0DFF1D8D919C91982789271C
:101A700098279183808344CF813009F041CFF701CB
:101A8000E20DF31D8281811102C080E88283A88962
:101A9000B9896D917D918D919C910E942E18910133
:101AA000220F331F39872887220D331D2E0F3F1F2A
:101AB000D90194966D937D938D939C939797A101F3
:101AC000440F551F440F551F240F351F5901B8E40B
:101AD000AB0EB11CAA89BB890D911C91D5010D9348
:101AE0001C935901BAE4AB0EB11CAC89BD890D91B0
:101AF0001C91D5010D931C935901BCE4AB0EB11C94
:101B0000AE89BF890D911C91D5010D931C93225B69
:101B10003F4FA88DB98D0D911C91D9010D931C9348
:101B20004E0D5F1DDA01D4968D909D90AD90BC90C6
:101B3000D797681579058A059B0509F4E1CEDF0181
:101B4000A958BF4F21E02C93AF01420D531DDA017C
:101B5000AA5BBF4F950184010095109520953095A3
:101B60008901222733272C0166247724042115219B
:101B70000D931C93811007C0662329F0DF01A15843
:101B8000BF4F31E03C93911006C0772321F0E55818
:101B9000FF4F21E02083A885B9854A0F5B1FFA011A
:101BA00064AB75AB86AB97ABABCEE3E0F0E02ECF8A
:101BB000BF81B13009F012CF83E015CFFC01019055
:101BC0000020E9F73197AF01481B590BBC018BE7A7
:101BD00092E00C94DF018F929F92AF92BF920F938D
:101BE0001F93CF93DF93CDB7DEB7A1970FB6F894CD
:101BF000DEBF0FBECDBF19A2423008F44AE08E010D
:101C00000F5D1F4F842E912CB12CA12CA5019401A6
:101C10000E94EF16E62FB901CA01EA30ECF4E05D4C
:101C2000D801EE938D01232B242B252B79F790E0FF
:101C300080E0109711F0CD01C1DFA1960FB6F894A6
:101C4000DEBF0FBECDBFDF91CF911F910F91BF902F
:101C5000AF909F908F900895E95CE2CF4F925F9292
:101C60006F927F928F929F92AF92BF92CF92DF92AC
:101C7000EF92FF920F931F93CF936B017C01742E11
:101C8000AC019B010E942218882391F084E392E02A
:101C9000CF911F910F91FF90EF90DF90CF90BF9069
:101CA000AF909F908F907F906F905F904F9086CF76
:101CB00046015701E894B7F82FEF3FEF4FE75FE792
:101CC000C501B4010E94221881110CC02FEF3FEF13
:101CD0004FE75FE7C501B40143D718161CF488E34A
:101CE00092E0D6CF2FEF3FEF4FE75FE4C701B60199
:101CF0000E941E1818161CF48CE392E0C9CF2FEF37
:101D00003FEF4FE75FECC701B6012AD787FDF4CF5D
:101D100020E030E0A901C701B60122D710E000E0C1
:101D200087FF0AC06DE28BE792E00E9474028C018B
:101D3000F7FAF094F7F8F094C0E060E070E080E02B
:101D40009FE37C1641F020E030E040E251E40E9445
:101D50008517CF5FF6CFA70196010E9421172B01AF
:101D60003C010E94F2174B015C014AE034DF7C0128
:101D7000E00EF11ECC23A1F1C501B401F5D69B0103
:101D8000AC01C301B2010E9420174B015C016EE25D
:101D90008BE792E00E947402E80EF91EC15000F138
:101DA00020E030E040E251E4C501B4013ED72B0110
:101DB0003C010E94F2174B01B12CA12C4AE0C50155
:101DC000B40109DFE80EF91EC501B401CDD69B01AF
:101DD000AC01C301B2010E9420174B015C01DECFB0
:101DE000C701CF911F910F91FF90EF90DF90CF909F
:101DF000BF90AF909F908F907F906F905F904F902B
:101E00000895DCCE1F920F920FB60F9211240BB6DD
:101E10000F922F933F934F935F936F937F938F9383
:101E20009F93AF93BF93EF93FF938BE792E00E9452
:101E30005202FF91EF91BF91AF919F918F917F914E
:101E40006F915F914F913F912F910F900BBE0F902B
:101E50000FBE0F901F9018951F920F920FB60F9202
:101E600011240BB60F922F938F939F93EF93FF93B1
:101E7000E0918B02F0918C028081E0919102F091CF
:101E8000920282FD1DC09081809194028F5F8F73BA
:101E900020919502821741F0E0919402F0E0E5581C
:101EA000FD4F958F80939402FF91EF919F918F91B9
:101EB0002F910F900BBE0F900FBE0F901F90189593
:101EC0008081F2CF1F920F920FB60F9211242F93A1
:101ED0003F938F939F93AF93BF9380916D029091A7
:101EE0006E02A0916F02B091700230916C0223E0FB
:101EF000230F2D3758F50196A11DB11D20936C02BB
:101F000080936D0290936E02A0936F02B093700263
:101F10008091710290917202A0917302B09174024B
:101F20000196A11DB11D8093710290937202A0933E
:101F30007302B0937402BF91AF919F918F913F91C3
:101F40002F910F900FBE0F901F90189526E8230F2A
:101F50000296A11DB11DD2CFCF93DF9310927E02C6
:101F600010927D0288EE93E0A0E0B0E080937F02C3
:101F700090938002A0938102B093820284E092E069
:101F800090937C0280937B0285EC90E09093880292
:101F90008093870284EC90E090938A028093890278
:101FA00080EC90E090938C0280938B0281EC90E027
:101FB00090938E0280938D0282EC90E09093900239
:101FC00080938F0286EC90E090939202809391022E
:101FD000109294021092950210929602109297021B
:101FE0008EE292E09093E6038093E5031092ED0376
:101FF00081E08093EE031092EF0387EE93E09093DD
:10200000EC038093EB031092E70388E08093E803EE
:102010008CE38093E9031092EA03E5EEF3E021E01C
:1020200087EE93E0158626871786948783873596F3
:1020300034E0E033F307B1F710925B0481E1809361
:10204000180386E192E0909337038093360385EE80
:1020500093E090933E0380933D0310923F031092D0
:102060005D03A6E3B3E090E080E01A961C921A9715
:10207000382F28E0811120E01B962C931B97FC0140
:10208000EE0FFF1FEF01C80FD91FCE5BDC4F288179
:102090002E7F2D7F2883311127C03FE0E80FF91FE5
:1020A000EE5BFC4F330F330F20812370232B2083F3
:1020B0000196139689309105C1F6EBE3F4E090E0C8
:1020C00080E021913191232B89F4880F991FFC0125
:1020D000E55CFB4F86E393E09183808381E080930E
:1020E0001903DF91CF91089531E0D8CF0196803167
:1020F000910539F7F3CFCF93DF93CDB7DEB767976D
:102100000FB6F894DEBF0FBECDBF789484B5826061
:1021100084BD84B5816084BD85B5826085BD85B58B
:10212000816085BD80916E00816080936E00109209
:102130008100809181008260809381008091810084
:102140008160809381008091800081608093800015
:102150008091B10084608093B1008091B000816073
:102160008093B00080919100826080939100809173
:1021700091008160809391008091900081608093B4
:1021800090008091A10082608093A1008091A100C5
:1021900081608093A1008091A00081608093A00065
:1021A00080912101826080932101809121018160D1
:1021B0008093210180912001816080932001809192
:1021C0007A00846080937A0080917A0082608093A4
:1021D0007A0080917A00816080937A0080917A0001
:1021E000806880937A001092C100E0918B02F09198
:1021F0008C0282E08083E0918702F0918802108255
:10220000E0918902F0918A0280E18083109293022A
:10221000E0918F02F091900286E08083E0918D0240
:10222000F0918E02808180618083E0918D02F09137
:102230008E02808188608083E0918D02F0918E0211
:10224000808180688083E0918D02F0918E02808190
:102250008F7D8083249A0E941D061FB7F894809179
:102260007502811124C0ECEFF1E08491E2E4F2E028
:102270009491E82FF0E0EE0FFF1FE355FE4FA5917C
:10228000B491EC91E92321F461E085E30E942903F4
:1022900085E30E94C0018CB580618CBD8CB58064E3
:1022A0008CBD84E30E94C00183E30E94C001809141
:1022B00075028F5F809375021FBF209A289A8091C4
:1022C00001018F7B8093010168E188E80E9420066C
:1022D00060E288E70E94200660E088E70E9420060E
:1022E00010E000E088E60E9465060F5F1F4F80FF48
:1022F00066C061EC88ED0E94200660E680ED0E94D9
:10230000200664E088EE0E94200688EE0E946506A2
:1023100082FFFBCF0E94550860E288EC0E942006F5
:1023200061E080E80E94200680E391E00E94C00204
:102330008DE20E94C00188E10E94C00189E10E94F3
:10234000C0018CE20E94C00186E10E94C00187E1C9
:102350000E94C0018FE20E94C0018CE10E94C00176
:102360008DE10E94C0018EE20E94C0018AE10E94BC
:10237000C0018BE10E94C0018DE00E94C0018091EC
:102380000001182F107486FD0CC088EC0E946506B1
:1023900085FF03C00E94550810E2612F88EC0E945F
:1023A000200680917A02813009F467C008F469C080
:1023B000823071F0833009F46EC010E020C00F3F0E
:1023C000100709F08FCF8BE491E00E94C002FFCF8D
:1023D00010E080911803807F803189F40E94DE0430
:1023E00068537F4F8F4F9F4F6093760270937702B1
:1023F000809378029093790290E2909318033BE3E4
:10240000632E34E0732E7301D7018D919D917D0170
:10241000009739F0DC01ED91FC910680F781E02D09
:102420001995BBE5EB16B4E0FB0671F78091180334
:10243000803409F467C088F5803209F44DC08033D8
:1024400009F45AC0813109F06DC010925B04F301A8
:10245000819191913F01009739F0DC01ED91FC9160
:102460000480F581E02D1995BBE56B16B4E07B0681
:1024700071F782E18093180355C033E1309318035C
:102480009CCF80911803807F803109F496CF81E141
:102490008093180392CF11E09CCF813509F401C2DB
:1024A000803809F411C28035E9F588EC0E94650690
:1024B00086FF38C081E5809318030E94DE046C5EBD
:1024C0007F4F8F4F9F4F6093760270937702809378
:1024D00078029093790226C00E94DE040091760271
:1024E000109177022091780230917902601B710B74
:1024F000820B930B97FD16C061E088EE0E942006C8
:1025000080E4B8CF88EE0E94650680FD0BC088EDA0
:102510000E946506682F686088ED0E942006E0E54D
:10252000E093180380913803882309F44AC080910E
:102530003903882309F445C06091880370918903A9
:10254000CB01805C904E81389E4368F0072E000CD2
:10255000880B990B0BD360932A0370932B03809302
:102560002C0390932D036091860370918703CB0118
:10257000805C904E81389E4368F0072E000C880BDB
:10258000990BF4D260932E0370932F038093300342
:102590009093310360918A0370918B03CB01805C2F
:1025A000904E81389E4368F0072E000C880B990BE3
:1025B000DDD260933203709333038093340390939E
:1025C000350340902A0350902B0360902C037090A9
:1025D0002D0380902E0390902F03A0903003B09095
:1025E0003103C0903203D0903303E0903403F09075
:1025F0003503A5019401C301B20122D4A7019601BC
:102600001FD460931A0370931B0380931C03909351
:102610001D03A5019401C301B20113D4A7019601C2
:1026200010D460931E0370931F0380932003909334
:102630002103C301B2019058A501940101D4A7015F
:102640009601FED3609322037093230380932403A7
:1026500090932503A3019201C501B401F1D3A70111
:102660009601EFD36093260370932703809328038A
:1026700090932903E9E8F1E08591949140917E03DC
:1026800050917F039C01209530952423352330936E
:102690007F0320937E0384239523892B31F080913F
:1026A000190391E0892780931903A2E3B0E0BF8B5F
:1026B000AE8B09E113E0812C912C540120E030E035
:1026C000A901F8016181728183819481B7D4980155
:1026D0002F5F3F4F790118160CF00CC283E592E092
:1026E00090DB4AE0C501B40176DA8DE592E089DB42
:1026F00080E492E086DB60E032E08316910409F426
:10270000EDC183E08816910409F4EEC191E08916C9
:10271000910409F4DDC186E10E94290361E087E1AB
:102720000E9429034FEF5FE7BE016A5E7F4FC7013A
:102730000E946001D80111966D937D938D939C93B7
:1027400014970C5F1F4FBFEF8B1A9B0AAB0ABB0A93
:10275000E4E08E169104A104B10409F0AFCF6091BA
:102760001A0370911B0380911C0390911D0335D4B3
:102770008CE20E94B50360911E0370911F0380914B
:1027800020039091210329D48DE20E94B50360912A
:1027900022037091230380912403909125031DD47B
:1027A0008EE20E94B5036091260370912703809109
:1027B00028039091290311D48FE20E94B50382E58A
:1027C00092E01FDB85E592E01CDB60911A037091BB
:1027D0001B0380911C0390911D0342E03FDA8AE5C0
:1027E00092E00FDB60911E0370911F038091200324
:1027F0009091210342E032DA80E692E002DB6091C0
:10280000220370912303809124039091250342E0D9
:1028100025DA86E692E0F5DA6091260370912703C7
:10282000809128039091290342E018DA10922A033C
:1028300010922B0310922C0310922D0310922E0352
:1028400010922F0310923003109231031092320332
:1028500010923303109234031092350310921A032E
:1028600010921B0310921C0310921D0310921E0362
:1028700010921F0310922003109221031092220342
:102880001092230310922403109225031092260322
:102890001092270310922803109229030E94F90234
:1028A0006ECD0E94DE04C0907602D0907702E09058
:1028B0007802F09079026C197D098E099F0997FDC5
:1028C00031CE80E8809318031B8AF8E0FC8B2CE360
:1028D0002D8B2090EB033090EC0383E190E08C0F84
:1028E0009D1F9093EC038093EB031093EF03A1E003
:1028F000B0E0AC0FBD1FBF93AF9392E1892E912C36
:1029000022E1A22EB12CCC24C394E12C06E020E8D5
:1029100040E060E085EE93E00E947A09082F309253
:10292000EC032092EB030F900F90811150C0C984EB
:10293000DA84AB84BC848D803E808BE3E82E84E017
:10294000F82E912CF70180819181009709F041C008
:102950009394F2E0EF0EF11C20E19212F3CFF30119
:1029600080819181009709F076C00F5FF2E06F0ED1
:10297000711C0031A1F78091EB039091EC03892B3E
:1029800009F459C01093EF0320E040E060E085EEC9
:1029900093E00E94AA05F82E882309F44CC0682F02
:1029A00085EE93E00E94FF05009709F444C0FC0106
:1029B00014836F2D85EE93E00E94280A082F882348
:1029C00009F484C06F2D85EE93E00E948905802F65
:1029D0002FC0DC01ED91FC910084F185E02D19956B
:1029E0008111B6CFF70180819181DC01ED91FC91DD
:1029F0000088F189E02D632D1995882309F4A8CF6B
:102A0000F70180819181DC01ED91FC910484F585D1
:102A1000E02DA501B6011995882379F0612F892D44
:102A20000E947F08813D09F493CF882309F44EC0AA
:102A3000823D09F477CD80EA1DCDF7018081918137
:102A4000DC01ED91FC910684F785E02D682D199548
:102A50008111E4CF7DCFDC01ED91FC910084F18503
:102A6000E02D1995811181CFF30180819181DC01E5
:102A7000ED91FC910088F189E02D632D199581116C
:102A800009C0612F802F0E947F08982F977F913D6A
:102A900061F66BCFF30180819181DC01ED91FC91B6
:102AA0000484F585E02DA501B601199581115DCF4E
:102AB000F30180819181DC01ED91FC910684F78521
:102AC000E02D682D19958823E1F24FCF80E9D2CC13
:102AD00088E10E94290361E089E122CE8AE10E9417
:102AE000290361E08BE11CCE8CE10E94290361E0A7
:102AF0008DE116CE83E592E084D94AE0C501B401A8
:102B00006AD88DE592E07DD989E492E07AD961E0D6
:102B1000B2E08B169104C1F0E3E08E169104D1F07F
:102B2000F1E08F16910451F086E10E94290360E0E4
:102B300087E10E94290341E050E8F6CD88E10E9438
:102B4000290360E089E1F5CF8AE10E94290360E072
:102B50008BE1EFCF8CE10E94290360E08DE1E9CFAA
:102B600040D008F481E00895E89409C097FB3EF452
:102B700090958095709561957F4F8F4F9F4F9923CA
:102B8000A9F0F92F96E9BB279395F6958795779548
:102B90006795B795F111F8CFFAF4BB0F11F460FF08
:102BA0001BC06F5F7F4F8F4F9F4F16C0882311F060
:102BB00096E911C0772321F09EE8872F762F05C074
:102BC000662371F096E8862F70E060E02AF09A950F
:102BD000660F771F881FDAF7880F9695879597F904
:102BE0000895990F0008550FAA0BE0E8FEEF16169E
:102BF0001706E807F907C0F012161306E407F507F1
:102C000098F0621B730B840B950B39F40A2661F064
:102C1000232B242B252B21F408950A2609F4A14007
:102C2000A6958FEF811D811D08950BD078C069D0C6
:102C300028F06ED018F0952309F05AC05FC0112417
:102C4000A2C07ED0A0F3959FD1F3950F50E0551F01
:102C5000629FF001729FBB27F00DB11D639FAA27F1
:102C6000F00DB11DAA1F649F6627B00DA11D661F40
:102C7000829F2227B00DA11D621F739FB00DA11D61
:102C8000621F839FA00D611D221F749F3327A00D1B
:102C9000611D231F849F600D211D822F762F6A2FB7
:102CA00011249F5750408AF0E1F088234AF0EE0F3C
:102CB000FF1FBB1F661F771F881F91505040A9F749
:102CC0009E3F510570F014C05EC05F3FECF3983E2C
:102CD000DCF3869577956795B795F795E7959F5FB0
:102CE000C1F7FE2B880F911D9695879597F908954A
:102CF00097F99F6780E870E060E008959FEF80ECAF
:102D0000089500240A941616170618060906089551
:102D100000240A9412161306140605060895092EB7
:102D20000394000C11F4882352F0BB0F40F4BF2B26
:102D300011F460FF04C06F5F7F4F8F4F9F4F089566
:102D400057FD9058440F551F59F05F3F71F047955C
:102D5000880F97FB991F61F09F3F79F08795089541
:102D6000121613061406551FF2CF4695F1DF08C060
:102D7000161617061806991FF1CF8695710561057D
:102D800008940895E894BB2766277727CB0197F925
:102D90000895052E97FB16F400940FD057FD05D02B
:102DA0001ED007FC02D046F408C0509540953095DF
:102DB00021953F4F4F4F5F4F0895909580957095A7
:102DC00061957F4F8F4F9F4F08952BD0A59F900DFA
:102DD000B49F900DA49F800D911D11240895A1E230
:102DE0001A2EAA1BBB1BFD010DC0AA1FBB1FEE1F85
:102DF000FF1FA217B307E407F50720F0A21BB30BD0
:102E0000E40BF50B661F771F881F991F1A9469F74B
:102E100060957095809590959B01AC01BD01CF01A7
:102E20000895A29FB001B39FC001A39F700D811DA3
:102E30001124911DB29F700D811D1124911D0895C3
:102E40005058BB27AA270ED06ACF5BDF30F060DF77
:102E500020F031F49F3F11F41EF450CF0EF4E095B2
:102E6000E7FB46CFE92F6CDF80F3BA1762077307E1
:102E70008407950718F071F49EF584CF0EF4E09561
:102E80000B2EBA2FA02D0B01B90190010C01CA0124
:102E9000A0011124FF27591B99F0593F50F4503ECF
:102EA00068F11A16F040A22F232F342F4427585FC1
:102EB000F3CF469537952795A795F0405395C9F7D9
:102EC0007EF41F16BA0B620B730B840BBAF0915091
:102ED000A1F0FF0FBB1F661F771F881FC2F70EC030
:102EE000BA0F621F731F841F48F487957795679503
:102EF000B795F7959E3F08F0B3CF9395880F08F0EC
:102F00009927EE0F9795879508950CD008CF00DF8D
:102F100040F0F7DE30F021F45F3F19F0E9CE5111B7
:102F200032CFECCE0DDF98F39923C9F35523B1F3DB
:102F3000951B550BBB27AA2762177307840738F028
:102F40009F5F5F4F220F331F441FAA1FA9F333D087
:102F50000E2E3AF0E0E830D091505040E695001C3B
:102F6000CAF729D0FE2F27D0660F771F881FBB1FF7
:102F7000261737074807AB07B0E809F0BB0B802DD1
:102F8000BF01FF2793585F4F2AF09E3F510568F01D
:102F9000AFCEF9CE5F3FECF3983EDCF386957795A4
:102FA0006795B795F7959F5FC9F7880F911D96951F
:102FB000879597F90895E1E0660F771F881FBB1F7B
:102FC000621773078407BA0720F0621B730B840B28
:102FD000BA0BEE1F88F7E095089504D06894B111FC
:102FE000D2CE0895B5DE88F09F5790F0B92F99277B
:102FF000B751A0F0D1F0660F771F881F991F1AF004
:10300000BA95C9F712C0B13081F0BCDEB1E00895C5
:10301000B9CE672F782F8827B85F39F0B93FCCF346
:10302000869577956795B395D9F73EF490958095F9
:10303000709561957F4F8F4F9F4F0895D2DD08F4B3
:103040008FEF0895CEDD880B990B0895EE0FFF1FCB
:10305000881F8BBF0790F691E02D1994692796275A
:1030600069277827872778270895DC0101C06D93A9
:0C30700041505040E0F70895F894FFCF65
:10307C00000000007402DF010C02DA023D021B02A8
:10308C002F02000000000D0B4F0AEA04C40B1B05B5
:10309C001A06020516061806180500000000FF05A2
:1030AC00AA0589056E616E00696E66006F76660012
:1030BC00506F736974697665004E656761746976E3
:1030CC0065000A0A0046523A20000A464C3A200093
:0C30DC000A52523A20000A524C3A2000DE
:020000023000CC
:10E000000D9489F10D94B2F10D94B2F10D94B2F129
:10E010000D94B2F10D94B2F10D94B2F10D94B2F1F0
:10E020000D94B2F10D94B2F10D94B2F10D94B2F1E0
:10E030000D94B2F10D94B2F10D94B2F10D94B2F1D0
:10E040000D94B2F10D94B2F10D94B2F10D94B2F1C0
:10E050000D94B2F10D94B2F10D94B2F10D94B2F1B0
:10E060000D94B2F10D94B2F10D94B2F10D94B2F1A0
:10E070000D94B2F10D94B2F10D94B2F10D94B2F190
:10E080000D94B2F10D94B2F10D94B2F10D94B2F180
:10E090000D94B2F10D94B2F10D94B2F10D94B2F170
:10E0A0000D94B2F10D94B2F10D94B2F10D94B2F160
:10E0B0000D94B2F10D94B2F10D94B2F10D94B2F150
:10E0C0000D94B2F10D94B2F10D94B2F10D94B2F140
:10E0D0000D94B2F10D94B2F10D94B2F10D94B2F130
:10E0E0000D94B2F141546D656761323536300041AF
:10E0F000726475696E6F206578706C6F72657220DE
:10E1000073746B3530305632206279204D4C530099
:10E11000426F6F746C6F616465723E004875683F52
:10E1200000436F6D70696C6564206F6E203D200048
:10E130004350552054797065202020203D20005FF9
:10E140005F4156525F415243485F5F3D2000415658
:10E1500052204C696243205665723D20004743437C
:10E160002056657273696F6E203D20004350552024
:10E1700049442020202020203D20004C6F7720663D
:10E18000757365202020203D20004869676820665F
:10E190007573652020203D200045787420667573D6
:10E1A00065202020203D20004C6F636B2066757336
:10E1B000652020203D20004D617220203720323024
:10E1C000313300312E362E3800342E332E350056A2
:10E1D00023202020414444522020206F7020636F70
:10E1E00064652020202020696E73747275637469E1
:10E1F0006F6E2061646472202020496E74657272B3
:10E20000757074006E6F20766563746F7200726A49
:10E210006D702020006A6D70200057686174207056
:10E220006F72743A00506F7274206E6F7420737541
:10E2300070706F72746564004D7573742062652030
:10E2400061206C6574746572002000577269747483
:10E25000696E672045450052656164696E672045B7
:10E26000450045452065727220636E743D00504F35
:10E27000525400303D5A65726F2061646472003FF1
:10E280003D43505520737461747300403D454550C3
:10E29000524F4D207465737400423D426C696E6B41
:10E2A000204C454400453D44756D70204545505215
:10E2B0004F4D00463D44756D7020464C415348001B
:10E2C000483D48656C70004C3D4C69737420492F83
:10E2D0004F20506F72747300513D51756974005234
:10E2E0003D44756D702052414D00563D73686F7707
:10E2F00020696E7465727275707420566563746FF0
:10E30000727300593D506F727420626C696E6B00BD
:10E310002A0011241FBECFEFD1E2DEBFCDBF01E046
:10E320000CBF12E0A0E0B2E0EEE1FDEF03E00BBFB6
:10E3300002C007900D92A030B107D9F712E0A0E01B
:10E34000B2E001C01D92AE30B107E1F70F9460F367
:10E350000D948DFE01E20EBF0FEF0DBF11241FBE05
:10E360000D9460F30D9400F020E030E040ED57E0B4
:10E3700005C0FA013197F1F72F5F3F4F2817390792
:10E38000C0F308959C01260F311DC901A0E0B0E043
:10E390002F5F3F4FABBFFC018791882361F08093D3
:10E3A000C6008091C00086FFFCCF8091C0008064D1
:10E3B0008093C000EACF08958DE08093C6008091DD
:10E3C000C00086FFFCCF8091C00080648093C000B5
:10E3D0008AE08093C6008091C00086FFFCCF8091C8
:10E3E000C00080648093C00008950F94C2F10F9420
:10E3F000DCF10895FC019081992359F09093C600B7
:10E400008091C00086FFFCCF8091C0008064809323
:10E41000C0003196992379F70895282F982F929567
:10E420009F70892F805D8A3308F0895F8093C600D2
:10E430008091C00086FFFCCF8091C00080648093F3
:10E44000C000822F8F70982F905D9A3308F0995FEB
:10E450009093C6008091C00086FFFCCF8091C000E1
:10E4600080648093C00008959C01FB01853691056E
:10E470001CF46330710594F0C90164E670E00F94F8
:10E480002EFE605D7F4F6093C6008091C00086FFC6
:10E49000FCCF8091C00080648093C0002B30310598
:10E4A00014F43297B4F0C90164E670E00F942EFEC4
:10E4B0006AE070E00F942EFE605D7F4F6093C600AF
:10E4C0008091C00086FFFCCF8091C0008064809363
:10E4D000C000C9016AE070E00F942EFEC0968093E0
:10E4E000C6008091C00086FFFCCF8091C000806490
:10E4F0008093C00008951F93182F8EE692EE60E07F
:10E500000F94C2F11093C6008091C00086FFFCCF2B
:10E510008091C00080648093C0000F94DCF11F9153
:10E5200008952F923F924F925F926F927F928F92B7
:10E530009F92AF92BF92CF92DF92EF92FF920F9392
:10E540001F93DF93CF93CDB7DEB762970FB6F894E2
:10E55000DEBF0FBECDBF382E622ECA01DB015C01CB
:10E560006D01772420E2222E2E010894411C511CBB
:10E570008BC081E0A81680E0B80681E0C80680E084
:10E58000D80628F0C601AA27BB270F940DF2BB2797
:10E59000AD2D9C2D8B2D0F940DF28A2D0F940DF225
:10E5A0002092C6008091C00086FFFCCF8091C00001
:10E5B00080648093C0009DE29093C6008091C0006B
:10E5C00086FFFCCF8091C00080648093C0002092C1
:10E5D000C6008091C00086FFFCCF8091C00080649F
:10E5E0008093C00019828601750188249924A1E0D6
:10E5F0003A1651F03A1620F0B2E03B1661F409C029
:10E600000BBFF701779007C0C7010F9477FE782EF4
:10E6100002C0F7017080872D0F940DF22092C60082
:10E620008091C00086FFFCCF8091C0008064809301
:10E63000C000872D8052F401EF70F0708F3520F408
:10E64000E40DF51D708204C0E40DF51D8EE280839B
:10E650000894E11CF11C011D111D0894811C911CE2
:10E6600090E18916910409F0C2CF80E190E0A0E02A
:10E67000B0E0A80EB91ECA1EDB1E198AC2010F9493
:10E68000FAF10F94DCF16A94662009F072CF629679
:10E690000FB6F894DEBF0FBECDBFCF91DF911F91B3
:10E6A0000F91FF90EF90DF90CF90BF90AF909F9031
:10E6B0008F907F906F905F904F903F902F90089534
:10E6C0002F923F924F925F926F927F928F929F9282
:10E6D000AF92BF92CF92DF92EF92FF920F931F9370
:10E6E000DF93CF93CDB7DEB7CD53D1400FB6F894BB
:10E6F000DEBF0FBECDBF01E20EBF0FEF0DBF94B75F
:10E70000F894A89514BE80916000886180936000A1
:10E7100010926000789493FF05C0E0910002F091A0
:10E7200001021995279A2F9A8091C00082608093E8
:10E73000C00080E18093C40088E18093C1000000A4
:10E74000EE24FF24870144E0A42EB12CCC24DD2448
:10E7500024C0C5010197F1F70894E11CF11C011DCB
:10E76000111D21E2E2162EE4F20620E0020720E06D
:10E77000120718F031E0C32ED12CC801B70127ECE5
:10E780003BE140E050E00F9441FE611571058105C9
:10E79000910519F485B1805885B98091C00087FD35
:10E7A00003C0C114D104A9F2A6014F5F5F4FC25E3E
:10E7B000DE4F59834883CE51D140C25EDE4F8881FF
:10E7C0009981CE51D140019711F00D9410FEC05D9A
:10E7D000DE4F19821882C053D14060E0C15DDE4F28
:10E7E0001882CF52D14088249924C35DDE4F19820C
:10E7F0001882CD52D140C05EDE4F188219821A8233
:10E800001B82C052D140CE5CDE4F188219821A8220
:10E810001B82C253D140EE24FF2487010BBFF701B6
:10E8200007911691C45CDE4F19830883CC53D14005
:10E830000D940BFEC25EDE4F28813981CE51D1404E
:10E840002130310509F52091C600C25EDE4F1982E4
:10E850001882CE51D14022C02F5F3F4F4F4F5F4FA4
:10E86000213082E138078AE7480780E0580780F0C6
:10E87000C45CDE4FE881F981CC53D140EF5FFF4F9C
:10E8800019F0EE27FF27099420E030E040E050E047
:10E890008091C00087FFE0CF2091C600C35DDE4FAE
:10E8A00048815981CD52D1404F5F5F4FC35DDE4FEC
:10E8B00059834883CD52D140213209F063C64A3092
:10E8C000510508F05FC60894811C911C53E0851621
:10E8D000910409F059C600E010E018C081E280936D
:10E8E000C6008091C00086FFFCCF8091C00080648C
:10E8F0008093C0002F5F3F4F2931310579F70F9486
:10E90000DCF10F5F1F4F0530110519F020E030E0FA
:10E91000E5CF10920A0210920B0210920C02109294
:10E920000D02109206021092070210920802109235
:10E930000902109202021092030210920402109235
:10E9400005028FEE90EE60E00F94F5F180E191EE1C
:10E9500060E00F94C2F18091C00087FFFCCF9091DE
:10E96000C600903608F09F759032B8F09093C600BC
:10E970008091C00086FFFCCF8091C00080648093AE
:10E98000C000A0E2A093C6008091C00086FFFCCF2B
:10E990008091C00080648093C000983409F4D7C18E
:10E9A0009934B8F4923409F459C1933458F490333B
:10E9B00019F1903308F4E3C59F33A1F1903409F0C5
:10E9C000DEC5BDC0953409F470C1963409F0D7C5D1
:10E9D00098C1923509F42BC2933538F49C3409F46C
:10E9E000F5C1913509F0CBC518C2963509F445C279
:10E9F000993509F0C4C567C483E792EE62E00F94CD
:10EA0000F5F110920602109207021092080210927D
:10EA1000090210920A0210920B0210920C0210923C
:10EA20000D0213C18FE792EE62E00F94F5F18FEEC5
:10EA300090EE60E00F94F5F181E291EE60E00F94CA
:10EA4000C2F187EB91EE60E00F94F5F180E391EE77
:10EA500060E00F94C2F184EE90EE60E00F94F5F167
:10EA60008FE391EE60E00F94C2F186E090E061E008
:10EA700070E00F9434F20F94DCF18DE591EE60E0DC
:10EA80000F94C2F189EC91EE60E00F94F5F18EE401
:10EA900091EE60E00F94C2F183EC91EE60E00F9490
:10EAA000F5F18CE691EE60E00F94C2F18EE10F94E7
:10EAB0000DF288E90F940DF281E00F940DF20F949E
:10EAC000DCF18BE791EE60E00F94C2F119E0E0E039
:10EAD000F0E010935700E4918E2F0F940DF20F94F5
:10EAE000DCF18AE891EE60E00F94C2F1E3E0F0E03F
:10EAF00010935700E4918E2F0F940DF20F94DCF1D8
:10EB000089E991EE60E00F94C2F1E2E0F0E0109349
:10EB10005700E4918E2F0F940DF20F94DCF188EAE8
:10EB200091EE60E00F94C2F1E1E0F0E01093570045
:10EB30001491812F0F940DF20F94DCF107CF8BE825
:10EB400092EE62E00F94F5F18BE492EE60E00F94A8
:10EB5000F5F10F94DCF100E010E019C0C8016F2D51
:10EB60000F947FFEFF2031F489E492EE60E00F9471
:10EB7000C2F10BC0F092C6008091C00086FFFCCFAE
:10EB80008091C00080648093C0000F5F1F4FC80158
:10EB900081519F41A0E0B0E0ABBFFC01F790BAE229
:10EBA000FB1621F0E2E000301E07C1F60F94DCF105
:10EBB0000F94DCF187E592EE60E00F94F5F10F948D
:10EBC000DCF1CC24DD2400E010E01EC0C8010F946D
:10EBD00077FEF82E882331F489E492EE60E00F94FA
:10EBE000C2F10BC08093C6008091C00086FFFCCFAD
:10EBF0008091C00080648093C000FE1419F00894D6
:10EC0000C11CD11C0F5F1F4FC80181519F41A0E063
:10EC1000B0E0ABBFFC01E790FAE2EF1621F022E092
:10EC20000030120799F60F94DCF10F94DCF182E6C4
:10EC300092EE60E00F94C2F1C60161E070E00F94C3
:10EC400034F20F94DCF10F94DCF110920202109276
:10EC50000302109204021092050278CE89E992EE26
:10EC600062E00F94F5F1279A2F9A16C02F9880E052
:10EC700090E0E0EDF7E03197F1F7019684369105E9
:10EC8000C1F72F9A80E090E0E0EDF7E03197F1F7DF
:10EC9000019684369105C1F78091C00087FFE6CFC9
:10ECA0008091C00087FFFCCF64C485EA92EE62E0E9
:10ECB0000F94F5F140910202509103026091040219
:10ECC0007091050281E020E10F9491F2809102029F
:10ECD00090910302A0910402B091050280509F4FD1
:10ECE000AF4FBF4F8093020290930302A0930402A0
:10ECF000B093050280509041A040B04008F426CE69
:10ED0000A4CF83EB92EE62E00F94F5F140910602FE
:10ED100050910702609108027091090280E020E1A1
:10ED20000F9491F28091060290910702A09108023F
:10ED3000B091090280509F4FAF4FBF4F80930602A2
:10ED400090930702A0930802B0930902FFCD80ECD4
:10ED500092EE62E00F94F5F183E792EE60E00F949B
:10ED6000F5F18FE792EE60E00F94F5F18BE892EE0B
:10ED700060E00F94F5F189E992EE60E00F94F5F10F
:10ED800085EA92EE60E00F94F5F183EB92EE60E09D
:10ED90000F94F5F180EC92EE60E00F94F5F187ECC2
:10EDA00092EE60E00F94F5F188ED92EE60E00F9442
:10EDB000F5F18FED92EE60E00F94F5F18AEE92EEB0
:10EDC00060E00F94F5F183E093EEBDCD87EC92EE19
:10EDD00062E00F94F5F181E40F947BF282E40F94EA
:10EDE0007BF283E40F947BF284E40F947BF285E45E
:10EDF0000F947BF286E40F947BF287E40F947BF20E
:10EE000088E40F947BF28AE40F947BF28BE40F94F6
:10EE10007BF28CE40F947BF299CD88ED92EE62E068
:10EE20000F94F5F1772473948824992409C48FED05
:10EE300092EE62E00F94F5F140910A0250910B02BC
:10EE400060910C0270910D0282E020E10F9491F22A
:10EE500080910A0290910B02A0910C02B0910D02D8
:10EE600080509F4FAF4FBF4F80930A0290930B0289
:10EE7000A0930C02B0930D0269CD8AEE92EE62E08F
:10EE80000F94F5F184EE90EE60E00F94F5F18FECC5
:10EE900091EE60E00F94F5F1662477244301CC5D98
:10EEA000DE4F19821882C452D140D401C301B695F5
:10EEB000A79597958795CA5DDE4F88839983AA8326
:10EEC000BB83C652D140CC5DDE4FA881B981C4520C
:10EED000D1401196CC5DDE4FB983A883C452D14096
:10EEE000CD0162E070E00F9434F2B0E2B093C6005E
:10EEF0008091C00086FFFCCF8091C0008064809329
:10EF0000C000EDE2E093C6008091C00086FFFCCF18
:10EF10008091C00080648093C000F0E2F093C6004E
:10EF20008091C00086FFFCCF8091C00080648093F8
:10EF3000C000CA5DDE4FE880F9800A811B81C6529D
:10EF4000D140BB27A12F902F8F2D0F940DF2CA5DBA
:10EF5000DE4F8881C652D1400F940DF2B0E2FB2EF5
:10EF6000F092C6008091C00086FFFCCF8091C00067
:10EF700080648093C0000DE30093C6008091C000C0
:10EF800086FFFCCF8091C00080648093C00010E2B7
:10EF90001093C6008091C00086FFFCCF8091C00016
:10EFA00080648093C0008BBEF3012791C65DDE4F65
:10EFB0002883CA52D140A22EBB24CC24DD2408943D
:10EFC000611C711C811C911C8BBEF3018791282E42
:10EFD0003324442455240894611C711C811C911C09
:10EFE0008BBEF3013791C55DDE4F3883CB52D140E4
:10EFF0000894611C711C811C911C8BBEF30147910C
:10F00000C45DDE4F4883CC52D140ADEFEA2EAFEF66
:10F01000FA2EAFEF0A2FAFEF1A2F6E0C7F1C801E57
:10F02000911E142D032DF22CEE24EA0CFB1C0C1D5A
:10F030001D1D0F940DF220E22093C6008091C000A8
:10F0400086FFFCCF8091C00080648093C000C65DC5
:10F05000DE4F8881CA52D1400F940DF230E23093D6
:10F06000C6008091C00086FFFCCF8091C000806404
:10F070008093C000C45DDE4F8881CC52D1400F9494
:10F080000DF240E24093C6008091C00086FFFCCFA5
:10F090008091C00080648093C000C55DDE4F888190
:10F0A000CB52D1400F940DF250E25093C6008091A4
:10F0B000C00086FFFCCF8091C00080648093C000B8
:10F0C0008FEFE8168FEFF80680E0080780E018075A
:10F0D00031F484E092EE60E00F94C2F1DFC0D80119
:10F0E000C7018070907CA070B0708050904CA040A0
:10F0F000B040D1F52FEF3FE340E050E0E222F322B1
:10F1000004231523CA5DDE4FA880B980CA80DB8046
:10F11000C652D140AE0CBF1CC01ED11EAA0CBB1CD7
:10F12000CC1CDD1C8EE092EE60E00F94C2F1BB2798
:10F13000A12F902F8F2D0F940DF28E2D0F940DF285
:10F1400030E23093C6008091C00086FFFCCF8091F2
:10F15000C00080648093C0004EE34093C60080915D
:10F16000C00086FFFCCF87C08EE09EEFA0E0B0E03D
:10F17000E822F9220A231B239CE0E91694E9F90608
:10F1800090E0090790E0190709F088C0C45DDE4FE0
:10F19000A881CC52D140EA2EFF2400E010E0102FCD
:10F1A0000F2DFE2CEE24C55DDE4FB881CB52D14031
:10F1B000EB0EF11C011D111DD601C501817090706F
:10F1C000A070B070DC0199278827E80EF91E0A1F8D
:10F1D0001B1F20EF30E040E050E0A222B322C42207
:10F1E000D52241E1AA0CBB1CCC1CDD1C4A95D1F7F1
:10F1F000EA0CFB1C0C1D1D1D81E090E0A0E0B0E0BE
:10F20000282239224A225B2235E1220C331C441C7D
:10F21000551C3A95D1F7E20CF31C041D151D57013E
:10F220006801AA0CBB1CCC1CDD1C85E192EE60E0E1
:10F230000F94C2F1C801AA27BB270F940DF2BB2778
:10F24000A12F902F8F2D0F940DF28E2D0F940DF274
:10F2500090E29093C6008091C00086FFFCCF809121
:10F26000C00080648093C000AEE3A093C60080918C
:10F27000C00086FFFCCF8091C00080648093C000F6
:10F28000C601AA27BB270F940DF2BB27AD2D9C2DDD
:10F290008B2D0F940DF28A2D0F940DF20F94DCF14B
:10F2A000CC5DDE4FE881F981C452D140F99709F471
:10F2B0004DCBF4E0EF2EF12C012D112D6E0C7F1CA7
:10F2C000801E911EF2CD83E093EE62E00F94F5F183
:10F2D0008AE192EE60E00F94C2F18091C00087FF56
:10F2E000FCCF1091C6001F751093C6008091C0001E
:10F2F00086FFFCCF8091C00080648093C0000F9493
:10F30000DCF1812F81548A3108F036C1163409F4BA
:10F3100095C0173490F4133409F44EC0143430F40B
:10F320001134F1F0123409F01DC130C0143409F465
:10F3300059C0153409F016C16BC01A3409F4C4C0A1
:10F340001B3438F4173409F48FC0183409F00AC19B
:10F35000A1C01B3409F4D2C01C3409F003C1E8C0B9
:10F360008FEF81B90DC082B1809582B980E090E0C5
:10F37000E0EDF7E03197F1F70196883C9105C1F790
:10F380008091C00087FFEFCF12B8EFC08FEF84B934
:10F390000DC085B1809585B980E090E0E0EDF7E0A3
:10F3A0003197F1F70196883C9105C1F78091C00033
:10F3B00087FFEFCF15B8D9C08FEF87B90DC088B1DF
:10F3C000809588B980E090E0E0EDF7E03197F1F7C3
:10F3D0000196883C9105C1F78091C00087FFEFCF6F
:10F3E00018B8C3C08FEF8AB90DC08BB180958BB9A7
:10F3F00080E090E0E0EDF7E03197F1F70196883C8E
:10F400009105C1F78091C00087FFEFCF1BB8ADC059
:10F410008FEF8DB90DC08EB180958EB980E090E0F0
:10F42000E0EDF7E03197F1F70196883C9105C1F7DF
:10F430008091C00087FFEFCF1EB897C08FEF80BBD1
:10F440000DC081B3809581BB80E090E0E0EDF7E0F6
:10F450003197F1F70196883C9105C1F78091C00082
:10F4600087FFEFCF11BA81C08FEF83BB0DC084B38C
:10F47000809584BB80E090E0E0EDF7E03197F1F714
:10F480000196883C9105C1F78091C00087FFEFCFBE
:10F4900014BA6BC08FEF809301010FC080910201FD
:10F4A00080958093020180E090E0E0EDF7E03197F5
:10F4B000F1F70196883C9105C1F78091C00087FF64
:10F4C000EDCF1092020151C08FEF809304010FC065
:10F4D0008091050180958093050180E090E0E0ED4A
:10F4E000F7E03197F1F70196883C9105C1F78091DB
:10F4F000C00087FFEDCF1092050137C08FEF8093DA
:10F5000007010FC08091080180958093080180E079
:10F5100090E0E0EDF7E03197F1F70196883C910536
:10F52000C1F78091C00087FFEDCF109208011DC088
:10F530008FEF80930A010FC080910B01809580931B
:10F540000B0180E090E0E0EDF7E03197F1F70196F4
:10F55000883C9105C1F78091C00087FFEDCF1092E4
:10F560000B0103C085E292EEEEC98091C00087FFD7
:10F57000FCCF8091C600EAC988E392EEE4C98CE131
:10F5800091EEE1C988249924933011F1943028F444
:10F59000913089F09230B8F408C0953061F195301F
:10F5A000F0F0963009F048C043C02B3109F042C951
:10F5B00091E06BE13FC96227C15DDE4F2883CF52E6
:10F5C000D14092E037C9B22FA0E0622793E032C960
:10F5D000822F90E0A82BB92B622794E02BC92E3004
:10F5E00009F039C3622795E0C05DDE4F19821882A9
:10F5F000C053D1401FC9E1E0F0E0EC0FFD1FC05D3A
:10F60000DE4F08811981C053D140E00FF11F2083E4
:10F610000F5F1F4FC05DDE4F19830883C053D14079
:10F6200062270A171B0709F005C9D80196E002C92D
:10F63000261709F010C303C0973009F0FBC87724E0
:10F640009981933109F412C19431C8F4963009F4C8
:10F65000D8C0973050F4923009F406C1933009F4C1
:10F660006DC0913009F059C253C0913109F477C08F
:10F67000923108F0BBC0903109F04FC2F5C098310B
:10F6800009F487C0993150F4953109F4EFC09531F0
:10F6900008F4C6C1963109F040C2C2C19A3109F4DA
:10F6A0006CC09A3108F491C09B3109F45BC09D3164
:10F6B00009F033C29D81903359F48F81882311F46E
:10F6C0009EE11CC0813011F091E018C098E916C08D
:10F6D000892F807591F0903539F4E0E0F0E089E011
:10F6E0008093570094910AC0983539F4E3E0F0E034
:10F6F00089E080935700949101C090E01A821B82A8
:10F700008D818C831D829E831F8227E030E009C299
:10F710001A8288E08B8381E48C8386E58D8382E581
:10F720008E8389E48F8383E5888780E589878FE5E9
:10F730008A8782E38B872BE030E0F3C18A818139AD
:10F7400041F0823941F0803911F48FE005C080E04A
:10F7500003C082E001C08AE01A828B8344C0772410
:10F76000739482C08D81882311F48EE12CC0813086
:10F7700011F081E028C088E926C01A82E1E0F0E0BB
:10F7800089E08093570084918B831C8224E030E0D1
:10F79000C8C18B81803589F48C81883039F4E2E0EE
:10F7A000F0E089E08093570084910DC0E0E0F0E044
:10F7B00089E080935700849106C0E3E0F0E089E09F
:10F7C0008093570084911A82DFCF8D81836C99E0FA
:10F7D000E1E0F0E0082E90935700E89507B600FCB2
:10F7E000FDCF1A821B8223E030E09BC180EC8A832C
:10F7F000CE5CDE4F188219821A821B82C253D1401E
:10F800008EC18A8190E0A0E0B0E0582F44273327D2
:10F8100022278B8190E0A0E0B0E0DC0199278827C7
:10F82000282B392B4A2B5B2B8D8190E0A0E0B0E098
:10F83000282B392B4A2B5B2B8C8190E0A0E0B0E089
:10F84000BA2FA92F982F8827282B392B4A2B5B2BCF
:10F85000220F331F441F551FC05EDE4F288339839C
:10F860004A835B83C052D1401A8259C13A81C95C34
:10F87000DE4F3883C753D140CA5CDE4F1882C6536F
:10F88000D1408B81C82EDD24CA5CDE4F488159816E
:10F89000C653D140C42AD52A933109F082C0CE5C28
:10F8A000DE4F88819981AA81BB81C253D1408050AB
:10F8B000904CA340B04030F583E0CE5CDE4FE88052
:10F8C000F9800A811B81C253D140F70100935B008C
:10F8D00080935700E89507B600FCFDCFCE5CDE4F65
:10F8E000088119812A813B81C253D14000501F4FAA
:10F8F0002F4F3F4FCE5CDE4F088319832A833B8313
:10F90000C253D140C05EDE4F488159816A817B81FC
:10F91000C052D140DE011B9631E08C9111962C91A2
:10F9200011971296C75CDE4F2883C953D140C85C3B
:10F93000DE4F1882C853D14090E0C85CDE4FE881AA
:10F94000F981C853D1408E2B9F2B0C01FA01609393
:10F950005B0030935700E89511244E5F5F4F6F4F67
:10F960007F4F0EEFE02E0FEFF02ECE0CDF1CC114F8
:10F97000D10499F685E0C05EDE4F088119812A81A5
:10F980003B81C052D140F80120935B008093570027
:10F99000E89507B600FCFDCF81E180935700E8951C
:10F9A00035C0C05EDE4F88819981AA81BB81C0527B
:10F9B000D140B695A795979587957C018601ABE0D8
:10F9C000AA2EB12CAC0EBD1E0BC0D5016D915D01F0
:10F9D000C7010F947FFE0894E11CF11C01501040F8
:10F9E0000115110591F7A60160E070E0440F551F65
:10F9F000661F771FC05EDE4FE880F9800A811B8199
:10FA0000C052D1404E0D5F1D601F711F1A82C05E33
:10FA1000DE4F488359836A837B83C052D1407FC0C5
:10FA2000FA80C55CDE4FF882CB53D140C65CDE4F16
:10FA30001882CA53D1408B81C82EDD24C65CDE4FAC
:10FA400008811981CA53D140C02AD12A1A828981DA
:10FA5000BE016D5F7F4F843121F59601C05EDE4FA0
:10FA6000E880F9800A811B81C052D1400BBFF701A9
:10FA700087919691DB018C9311969C936E5F7F4FDB
:10FA8000D801C7010296A11DB11DC05EDE4F88835B
:10FA90009983AA83BB83C052D14022503040F1F6F3
:10FAA00036C0C05EDE4F288139814A815B81C052F9
:10FAB000D1400894C108D108760100E010E0089414
:10FAC000C11CD11C0894E11CF11C011D111DE20E8A
:10FAD000F31E041F151F21BDBB27A52F942F832FB5
:10FAE00082BD2F5F3F4F4F4F5F4FF89A80B5DB01CC
:10FAF0008D93BD012E153F054007510761F7C05E8C
:10FB0000DE4F288339834A835B83C052D1409601FC
:10FB10002D5F3F4FFB01108204C080EC8A8322E0FE
:10FB200030E08BE18093C6008091C00086FFFCCF5F
:10FB30008091C00080648093C000C15DDE4FF88179
:10FB4000CF52D140F093C6008091C00086FFFCCF19
:10FB50008091C00080648093C000432F3093C60022
:10FB60008091C00086FFFCCF8091C00080648093AC
:10FB7000C000922F2093C6008091C00086FFFCCF6A
:10FB80008091C00080648093C0008EE08093C600A6
:10FB90008091C00086FFFCCF8091C000806480937C
:10FBA000C00065E1C15DDE4FE880CF52D1406E25D7
:10FBB00069276427FE01319610C090819093C6009A
:10FBC0008091C00086FFFCCF31968091C000806498
:10FBD0008093C0006927215030402115310569F715
:10FBE0006093C6008091C00086FFFCCF8091C0006A
:10FBF00080648093C00085B1805885B9772081F4F6
:10FC0000C15DDE4F0881CF52D1400F5FC15DDE4F35
:10FC10000883CF52D14090E0A0E0B0E00D941AF4F8
:10FC200027982F9880E090E020ED37E0F901319798
:10FC3000F1F7019684369105C9F700008091C00064
:10FC40008D7F8093C00081E180935700E895EE2777
:10FC5000FF270994FFCF90E00D941AF497FB092E2B
:10FC600007260AD077FD04D02ED006D000201AF443
:10FC7000709561957F4F0895F6F7909581959F4F08
:10FC80000895A1E21A2EAA1BBB1BFD010DC0AA1FDD
:10FC9000BB1FEE1FFF1FA217B307E407F50720F0F5
:10FCA000A21BB30BE40BF50B661F771F881F991F70
:10FCB0001A9469F760957095809590959B01AC01B9
:10FCC000BD01CF010895AA1BBB1B51E107C0AA1FAC
:10FCD000BB1FA617B70710F0A61BB70B881F991FED
:10FCE0005A95A9F780959095BC01CD010895F99991
:10FCF000FECF92BD81BDF89A992780B50895262F31
:10FD0000F999FECF1FBA92BD81BD20BD0FB6F89400
:0EFD1000FA9AF99A0FBE01960895F894FFCF63
:040000033000E000E9
:00000001FF
