:100000002AC1000059C1000057C1000055C10000BD
:1000100053C1000051C100004FC100004DC100009C
:100020004BC1000049C1000047C1000045C10000AC
:1000300043C1000041C100003FC100003DC10000BC
:100040003BC1000039C1000037C1000035C10000CC
:1000500033C1000031C100002FC100000C94620FB9
:100060002BC100000C942C0F0C94020F25C1000032
:1000700023C1000021C100001FC100001DC10000FC
:100080001BC1000019C1000017C1000015C100000C
:1000900013C1000011C100000FC100000DC100001C
:1000A0000BC1000009C1000007C1000005C100002C
:1000B00003C1000001C10000FFC00000FDC000003E
:1000C000FBC00000F9C00000F7C00000F5C0000050
:1000D000F3C00000F1C00000EFC00000EDC0000060
:1000E000EBC0000000020304050100000A0B020936
:1000F0000C0D0E08070304010000000000000000C2
:1001000000000000000000000000000000000000EF
:1001100000000000000012111000000000000000AC
:1001200000000000000000000000000000000000CF
:100130000D0A496E697469616C697A6174696F6EE0
:1001400020636F6D706C6574652E000D0A466169E1
:100150006C75726520746F20636F6E6E65637420BA
:10016000746F2055534220536869656C642E0000FB
:100170000100080002000400200010004000800080
:100180000000000100020020001000400080000478
:1001900000080000002200250028002B002E00315E
:1001A00000340002010000050108010B01000021DC
:1001B00000240027002A002D003000330001010038
:1001C00000040107010A01050505050705080808DF
:1001D00008020202020A0A080804040404010101D8
:1001E00001010101010303030303030303040707E0
:1001F000070C0C0C0C0C0C0C0C020202020606067E
:1002000006060606060B0B0B0B0B0B0B0B01021065
:100210002020080810204010204080020102010820
:1002200004020101020408102040808040201008D0
:100230000402018004020180402010080402010829
:100240000402010102040810204080010204081089
:1002500020408000AC0F11241FBECFEFD1E2DEBFE3
:10026000CDBF00E00CBF12E0A0E0B2E0ECE7F0E3AD
:1002700000E00BBF02C007900D92AC36B107D9F772
:1002800024E0ACE6B2E001C01D92AC35B207E1F764
:1002900011E0CBE2D1E000E006C021970109802FF8
:1002A000FE010E942618CA32D10780E00807A9F78C
:1002B0000E947B100C943C18A3CE8CBD9DBD08956C
:1002C000CF92DF92EF92FF920F931F93CF93DF9322
:1002D000EC018B017A01688179818A819B810E947E
:1002E000ED179B01AC01AFEFB0E00E94E51697015E
:1002F000FF0C440B550B0E94C916C12CD12C760162
:1003000057FD15C08091190364E670E0882311F051
:100310006FEF70E0072E000C880B990B62177307C4
:100320008407950754F50E94B6156B017C01C882BD
:10033000D982EA82FB82F80160817181072E000C6C
:10034000880B990B0E94B6159B01AC01C701B60141
:100350000E94B01587FF04C0188219821A821B827E
:10036000688179818A819B81DF91CF911F910F9163
:10037000FF90EF90DF90CF900895CA01B901D3CFDD
:1003800090E0FC01E35FFD4F249189539E4FFC01F7
:100390008491882399F090E0880F991FFC01E35520
:1003A000FE4FA591B491FC01ED56FE4F85919491BD
:1003B0008FB7F894EC91E22BEC938FBF0895AF9236
:1003C000BF92CF92DF92EF92FF920F931F93CF9342
:1003D000DF936C017B018B01040F151FEB015E01A4
:1003E000AE18BF08C017D10759F06991D601ED9139
:1003F000FC910190F081E02DC6011995892B79F7C8
:10040000C501DF91CF911F910F91FF90EF90DF9089
:10041000CF90BF90AF900895FC01538D448D252F50
:1004200030E0842F90E0821B930B541710F0CF968E
:10043000089501970895FC01918D828D981761F0C0
:10044000A28DAE0FBF2FB11D5D968C91928D9F5FD7
:100450009F73928F90E008958FEF9FEF0895FC01B6
:10046000918D828D981731F0828DE80FF11D858D69
:1004700090E008958FEF9FEF0895FC01918D228DFC
:10048000892F90E0805C9F4F821B91098F73992781
:1004900008958BE792E0F1DF21E0892B09F420E059
:1004A000822F0895FC01A48DA80FB92FB11DA35A66
:1004B000BF4F2C91848D90E001968F739927848F84
:1004C000A689B7892C93A089B1898C9183708064A7
:1004D0008C93938D848D981306C00288F389E02D48
:1004E00080818F7D80830895EF92FF920F931F93F9
:1004F000CF93DF93EC0181E0888F9B8D8C8D9813D7
:100500001AC0E889F989808185FF15C09FB7F894E2
:10051000EE89FF896083E889F9898081837080642E
:1005200080839FBF81E090E0DF91CF911F910F9179
:10053000FF90EF900895F62E0B8D10E00F5F1F4F88
:100540000F731127E02E8C8D8E110BC00FB607FC98
:10055000FACFE889F989808185FFF5CFCE01A2DF46
:10056000F2CFEB8DEC0FFD2FF11DE35AFF4FF08220
:100570009FB7F8940B8FEA89FB8980818062D0CF86
:100580000F931F93CF93DF938C01D0E0C0E0F8016D
:10059000EC0FFD1F6491662339F08BE792E0A4DF36
:1005A000892B11F02196F3CFCE01DF91CF911F91CE
:1005B0000F910895CF93DF93EC01888D8823B1F0DC
:1005C000AA89BB89E889F9898C9185FD03C080815E
:1005D00086FD0CC00FB607FCF7CF8C9185FFF2CFDC
:1005E000808185FFEDCFCE015DDFEACFDF91CF9136
:1005F000089580E090E0892B21F04BDF81110E946B
:10060000000080E090E0892B49F080E090E0892BA9
:1006100029F00E94000081110E94000080E090E01B
:10062000892B49F080E090E0892B29F00E9400009E
:1006300081110E94000080E090E0892B49F080E069
:1006400090E0892B29F00E94000081110C94000099
:100650000895282F30E0F901E651FF4F9491F901F8
:10066000E35FFD4F449129533E4FF901249122232A
:1006700009F435C0992311F191509231F8F4E92F22
:10068000F0E08827E95BFC4F8F4F0C942618780325
:100690007C035903700374035E037F03850389039E
:1006A0008F03930397039D03A1035E03A503AB038D
:1006B000AF03809180008F7780938000E22FF0E07D
:1006C000EE0FFF1FED56FE4FA591B4918FB7F89432
:1006D000EC91611148C040954E234C938FBF089513
:1006E000809180008F7DE8CF80918000877FE4CF6C
:1006F00084B58F7784BDE2CF84B58F7DFBCF8091A9
:10070000B0008F778093B000D9CF8091B0008F7DFB
:10071000F9CF809190008F7780939000CFCF809118
:1007200090008F7DF9CF80919000877FF5CF8091E9
:10073000A0008F778093A000C1CF8091A0008F7D13
:10074000F9CF8091A000877FF5CF809120018F772E
:1007500080932001B3CF809120018F7DF9CF8091CC
:100760002001877FF5CF4E2BB8CF1F93CF93DF9318
:10077000182FEB0105DE209731F460E0812FDF9127
:10078000CF911F9166CFCF3FD10511F461E0F6CF35
:10079000E12FF0E0E651FF4FE491E150E23108F043
:1007A000B3C0F0E08827E852FC4F8F4F0C94261816
:1007B000EA03F203F70301040B04840415041D0487
:1007C00025042F043904430452045C0484046604A1
:1007D00070047A0484B5806884BDC7BDDF91CF9171
:1007E0001F91089584B5806284BDC8BDF7CF809104
:1007F0008000806880938000D0938900C093880037
:10080000EDCF80918000806280938000D0938B0038
:10081000C0938A00E3CF809180008860809380003D
:10082000D0938D00C0938C00D9CF8091B0008068A8
:100830008093B000C093B300D1CF8091B0008062AC
:100840008093B000C093B400C9CF809190008068BD
:1008500080939000D0939900C0939800BFCF80916F
:100860009000806280939000D0939B00C0939A0088
:10087000B5CF80919000886080939000D0939D00C8
:10088000C0939C00ABCF8091A00080688093A000B3
:100890008091A0008F7B8093A000D093A900C0938B
:1008A000A8009CCF8091A00080628093A000D0938C
:1008B000AB00C093AA0092CF8091A0008860809383
:1008C000A000D093AD00C093AC0088CF80912001F0
:1008D000806880932001D0932901C09328017ECFA6
:1008E00080912001806280932001D0932B01C093DE
:1008F0002A0174CF80912001886080932001D093D9
:100900002D01C0932C016ACFC038D1050CF03ECF29
:1009100034CF3FB7F8948091710290917202A09108
:100920007302B091740226B5A89B05C02F3F19F041
:100930000196A11DB11D3FBFBA2FA92F982F88275F
:10094000BC01CD01620F711D811D911D42E0660F3A
:10095000771F881F991F4A95D1F708958F929F920C
:10096000AF92BF92CF92DF92EF92FF924B015C0168
:10097000D0DF6B017C01CDDF6C197D098E099F09E9
:10098000683E734081059105B0F321E0821A910819
:10099000A108B10888EEC80E83E0D81EE11CF11C46
:1009A00081149104A104B10431F7FF90EF90DF901E
:1009B000CF90BF90AF909F908F9008952FB7F894ED
:1009C00060916D0270916E0280916F029091700241
:1009D0002FBF0895CF93DF93EC011A821B821C82F4
:1009E0001D821E828F819885DC01ED91FC9104802F
:1009F000F581E02D6985199519861FA280E0DF91A8
:100A0000CF9108956E3584E0780739F06D3A9BE117
:100A1000790719F06E32764141F481E0493197E06F
:100A2000590729F04139524011F080E008950895A6
:100A3000FC0187A10895FC0181850895DF92EF9262
:100A4000FF920F931F93CF93DF93EC0185E0E62E87
:100A5000F12CFE01869FE00DF11D1124908596FF7B
:100A600024C0192F177001E085E0D82E8FEF800F7A
:100A70008F3008F001E0602F70E0062FD69EF00165
:100A8000D79EF00D1124EC0FFD1F8085869586956D
:100A900086958770181701F16F5F7F4F603168F39B
:100AA0008D81811302C011501D8385E08E9DF00160
:100AB0008F9DF00D1124EC0FFD1F108681E08187C2
:100AC00012862296D783C683DF91CF911F910F9113
:100AD000FF90EF90DF900895CE01B0DFC7CFFC010B
:100AE00020812EBD9B012150310941F051810DB46F
:100AF00007FEFDCF4EB55EBD4193F5CF6150710944
:100B0000860F971F0DB407FEFDCF2EB5FC01208385
:100B10000895FC0121E0613499F49C01255B3F4F6D
:100B200061E0AC014E5F5F4F15866687178654877C
:100B3000438735962E173F07B9F7FC0115820895B4
:100B40003585631729F02F5F35962031C9F7089551
:100B5000622F74CFCF93DF93FC0167FD12C0283062
:100B600080F4442319F08581873059F0EF01A1E02A
:100B7000B0E08D85882349F111962596A031B10505
:100B8000C1F780E018C085E08A9FE0018B9FD00DFF
:100B90001124CE0FDF1F442389F081E488878581EB
:100BA0008F5F858325E02A9FC0012B9F900D112424
:100BB000E80FF91F8085DF91CF91089581E0888744
:100BC000F1CF2770687B622B0FC06623E1F267705C
:100BD000660F660F660F4423A1F3606485818F5F03
:100BE00085838770687F682B25E02A9FC0012B9F33
:100BF000900D1124E80FF91F6087862FDCCFFC01D0
:100C000021E0611102C0069608953585631739F019
:100C10002F5F35962031C9F790E080E00895069661
:100C200035E0239F800D911D1124089580E00895E3
:100C300081E0089508952C9808952C9A08950895B8
:100C40000F931F93CF93DF931F921F92CDB7DEB701
:100C5000182F062F80E591E030DBEDDF126019835D
:100C60000A8362E070E0CE01019639DFE6DF0F9083
:100C70000F90DF91CF911F910F9108958EBD0000CD
:100C80000DB407FEFDCF8EB50895FF920F931F930D
:100C9000CF93DF93182FF62EEA0180E591E00DDB6C
:100CA000CADF812F8260EADF0F2D10E0FF2019F0EC
:100CB000B801CE0114DFC00FD11FBFDFCE01DF911D
:100CC000CF911F910F91FF900895CF93C82F80E58A
:100CD00091E0F3DAB0DF8C2FD1DF80E0CFDFC82FD7
:100CE000ACDF8C2FCF9108958F929F92AF92BF92DD
:100CF000CF92DF92EF92FF920F931F93CF93DF93E8
:100D0000882E962E5A015ADE6B017C0128E8C20E0D
:100D100023E1D21EE11CF11C10E000E0D0E0C0E0B5
:100D200098284CDE6C197D098E099F0997FF19C020
:100D3000692D80EF85DF42DE6C197D098E099F09E0
:100D400097FF07C088ECC1DF87FFF5CF60E888EC2C
:100D500077DF88EFBADFC82FCF70C43081F0CE3094
:100D6000B9F08C2FDF91CF911F910F91FF90EF90F1
:100D7000DF90CF90BF90AF909F908F9008950F5FBE
:100D80001F4FA114B10469F20A151B0551F6E9CFF2
:100D9000DF5FD33009F0C5CFE4CF2F923F924F925F
:100DA0005F926F927F928F929F92AF92BF92CF92FB
:100DB000DF92EF92FF920F931F93CF93DF9300D0B8
:100DC0001F921F92CDB7DEB79D838C834B017A01B2
:100DD0006901FC0111818FEF810F803408F0B1C0EF
:100DE000EDDD2B013C01F8E84F0EF3E15F1E611CC5
:100DF000711CEC81FD81828160E480FD60E888EEF9
:100E00001FDF312C812F90E09A838983E114F10454
:100E100009F43EC009811A81E016F10608F4870141
:100E20000B83A601602F80E130DF602F88E308DFAD
:100E3000EC81FD816081606280EF02DF88EC45DF3C
:100E400087FFFCCF60E888ECFBDE88EF3EDF8F7029
:100E5000382EB12CA12C212C3320D9F1AFDD64190F
:100E600075098609970997FF34C0F6E03F1609F423
:100E700055C02EE0321691F184E0381209C09FEF80
:100E8000A91AB90A8114910469F1A814B90451F599
:100E900088EF1BDFEC81FD81928185FB90F99283C5
:100EA000832D0F900F900F900F900F90DF91CF91A7
:100EB0001F910F91FF90EF90DF90CF90BF90AF9078
:100EC0009F908F907F906F905F904F903F902F906A
:100ED0000895E01AF10AC00ED11E98CF2394E3E0E2
:100EE0002E16B1F260E088E3ABDEF601608180E1AE
:100EF000A7DE6B8188E3A4DEEC81FD816081606206
:100F000080EF9EDE88ECE1DE87FFFCCF60E888ECB6
:100F100097DE88EFDADE8F70382E9ECF88EFD5DE31
:100F200085FB882780F9F1E08F27EC81FD81928194
:100F300080FB90F9928360E490FD60E888EE80DEAB
:100F4000D1CF8AED382EACCFAF92BF92CF92DF9245
:100F5000EF92FF920F931F93CF93DF93EC01B62E86
:100F6000A42E69014CDE7C0186EDE114F10409F444
:100F700044C0D701ED91FC91119787ED309709F4AA
:100F80003CC013969C9180E0981731F02081A21606
:100F900029F033968F5FF8CFF0E0E0E0D601ED93D3
:100FA000FC938BED309749F12281269526952031CF
:100FB00008F02FE081E090E0A0E0B0E004C0880FEE
:100FC000991FAA1FBB1F2A95D2F70197F801918399
:100FD00080836B2D80EE34DE88ED77DED7011496AA
:100FE0009C91682F697F992329F0CA58DF4F688147
:100FF0006260682B88ED24DE80E0DF91CF911F9145
:101000000F91FF90EF90DF90CF90BF90AF90089539
:10101000CF92DF92EF92FF920F931F93CF93DF93C4
:1010200000D01F92CDB7DEB7613091F0E0F16230B1
:10103000B1F16330B1F10F900F900F900F90DF91ED
:10104000CF911F910F91FF90EF90DF90CF90089577
:1010500024E07A01FC01C780D08430E0D901AA0FD6
:10106000BB1FA20FB31FAE0FBF1F1A964C91618515
:101070001C821B821A8219828E010F5F1F4F9E01F4
:101080002D5F3F4FC60160DF8111D5CF69817A8125
:10109000970144E050E08B819C817FDECCCF26E03D
:1010A000D8CF28E0D6CF22E0D4CF88EF0EDE807CE8
:1010B0008034A1F018F48823E1F00895803819F005
:1010C000803CA9F0089588ED00DE81FD0BC069EC3D
:1010D00088EDB6DD82E080937A02089588EDF5DD33
:1010E00081FDF5CF6BEC88EDABDD83E0F4CF81E0E3
:1010F000F2CF61ED88EDA4DD10927A020895CF92CF
:10110000DF92FF920F931F93CF93DF93F62E01E0B0
:10111000C82FD0E0CC0FDD1FC55CDB4F6E0188818E
:101120009981DC01ED91FC910280F381E02D2F2D5E
:1011300040E060E01995182F803E29F561E088EEC7
:101140007FDD66E670E080E090E008DCF6018081FB
:101150009181DC01ED91FC910190F081E02D2F2D2A
:1011600040E060E01995182F8D3029F58FEF800F42
:10117000833078F061E088EE63DD66E670E080E061
:1011800090E0ECDB0FC08D3059F48FEF800F83308F
:1011900048F464E670E080E090E0E0DB0F5FBFCFF2
:1011A0008823A1F2812FDF91CF911F910F91FF90A2
:1011B000DF90CF9008958823A9F3DCCF2F923F9240
:1011C0004F925F926F927F928F929F92AF92BF9257
:1011D000CF92DF92EF92FF920F931F93CF93DF9303
:1011E0007B013A016901F901A080B180FB013180E6
:1011F000F90111821082FB01828160E181FD60E2D0
:1012000088EE1EDD2A2CA301F701608180E06CDDF1
:10121000582EF6E08F130EC088EF57DDF70192814C
:101220009D7F84FF9260928360E191FD60E288EE91
:1012300007DDE9CF811147C088EC47DD82FF57C049
:1012400080E343DD482E8A151B0411F008F0422C80
:10125000F60180819181E501C81BD90BD7FF02C03F
:10126000D0E0C0E0842C912C8C169D060CF4E40197
:1012700080E591E022D8DFDC88E000DDAE0170E09F
:1012800060E0C8010E943518209719F0BE01C8011E
:1012900026DC0C0F1D1FD1DC64E088ECD1DCF601EC
:1012A00080819181880E991E91828082431420F062
:1012B0008A149B0408F4A7CF88EF07DDF701928119
:1012C00084FB91F99283852DDF91CF911F910F912E
:1012D000FF90EF90DF90CF90BF90AF909F908F9056
:1012E0007F906F905F904F903F902F90089580EF88
:1012F000582EE9CF3F924F925F926F927F928F92DA
:101300009F92AF92BF92CF92DF92EF92FF920F9394
:101310001F93CF93DF93CDB7DEB72E970FB6F89418
:10132000DEBF0FBECDBF3C01F42E522E402E3C2C12
:10133000CBA0DCA01E861D861C861B868E01055F49
:101340001F4F9E01235F3F4FFFDD182F811162C0A9
:1013500059824A82EB823C821E821D82B886AF820D
:10136000AE014F5F5F4F68E080E28FDC4B855C85AC
:101370006F2D80E1B9DC182F81114CC0C114D1044C
:1013800091F1ED85FE85828157FE33C082608283B4
:10139000EE24E394A114B10409F455C09A86898619
:1013A0004B855C856D857E8586019E01275F3F4F5D
:1013B000C30104DF182F863069F488EF86DCED85E1
:1013C000FE8585FB882780F98E25928180FB91F927
:1013D0009283E0CF81111EC089859A85A81AB90A27
:1013E00088159905B8F64B855C8557FE0FC080EAD5
:1013F0000EC0816082836B857C859601A401CF013C
:10140000CCDC182F811106C04B855C8580E86F2DE0
:101410006BDC182F812F2E960FB6F894DEBF0FBE0F
:10142000CDBFDF91CF911F910F91FF90EF90DF9093
:10143000CF90BF90AF909F908F907F906F905F9074
:101440004F903F9008954B855C85112381F2E2CF48
:101450008F929F92AF92BF92CF92EF920F93CF93C2
:101460001F921F92912C812CB12CA12CC12CE62E05
:1014700005E020E040E060E03DDFC82F6CE271E075
:1014800080E090E06BDA0F900F908C2FCF910F914E
:10149000EF90CF90BF90AF909F908F9008952F9234
:1014A0003F924F925F926F927F928F929F92AF92F4
:1014B000BF92CF92EF92FF920F931F93CF93DF9340
:1014C000CDB7DEB764970FB6F894DEBF0FBECDBFC1
:1014D000DC0119963C9109ED311173C0022F142FD4
:1014E000F62E3C01FC0127803084D101ED91FC9166
:1014F0000190F081E02D60E0C10119952C01009769
:1015000009F487C0FC010190F081E02DFC8BEB8B8E
:10151000EF2B09F480C0C3010A96D20111969C9367
:101520008E9314960C93CE0101969F938F9382E134
:10153000882E912C92E1A92EB12CCC24C394E12CBD
:1015400006E020E840E060E0F30187819085D2DE8C
:10155000082FEB89FC89D201ED93FC930F900F903B
:10156000811148C089859A858E35F4E09F0741F046
:101570008D3A2BE1920721F08E32964109F045C059
:101580008B859C858931B7E09B0719F081399240A2
:10159000E1F5D101ED91FC910280F381E02D212F45
:1015A00040E06F2DC1011995F301818704ED882377
:1015B00041F08885838764E170E080E090E0CED9D7
:1015C00000EE802F64960FB6F894DEBF0FBECDBF3D
:1015D000DF91CF911F910F91FF90EF90CF90BF902F
:1015E000AF909F908F907F906F905F904F903F90C3
:1015F0002F9008958D3059F4D301ED91FC91048022
:10160000F581E02DC3011995DCCF01EDF5CF01EE99
:10161000F3CF06EDD6CF07EDD4CF8F929F92AF9246
:10162000BF92CF92DF92EF92FF920F931F93CF93CF
:10163000DF93EC01022FEF80F884D701ED91FC914C
:101640000190F081E02D6985C70119956C01892B06
:1016500079F416ED812FDF91CF911F910F91FF90BB
:10166000EF90DF90CF90BF90AF909F908F900895B4
:101670006CE271E080E090E071D969858F81988596
:10168000E7DE182F882351F0F6011482E881F981F2
:101690000480F581E02DCE011995DCCFD60114969A
:1016A0001C92D701ED91FC910190F081E02D6985AC
:1016B000C7011995009769F2FC0104838F81988511
:1016C0008E01065F1F4FF9840115110509F45AC0F8
:1016D0006F2D95DAFC01892B11F416EDD7CFF2822C
:1016E00011830083FF24F394F382FD8690E29E87AA
:1016F00084E08F87F88A998B8A8B23E02B8B9C8BD5
:101700008D8B2E8B9F8B888F25E0298F9A8F8B8FC7
:101710002C8F9D8F8E8F27E02F8F98A389A32AA3CC
:101720009BA38CA3E9846E2D8F81988568DAFC01D8
:10173000892B99F2E2821183008389E0838368EC2C
:1017400070E080E090E00AD91F921F92912C812CCA
:10175000B12CA12CC12CEE24E39409E020E04A85B1
:1017600069858F819885C6DD182F0F900F908111A4
:101770008DCFFA82FFA2CC57DF4F188219821A82CE
:101780001B8268CF18ED82CF2F923F924F925F92CB
:101790006F927F928F929F92AF92BF92CF92DF9281
:1017A000EF92FF920F931F93CF93DF93CDB7DEB7E6
:1017B0006F970FB6F894DEBF0FBECDBFDC019796D2
:1017C0002C91222309F4A1C07C018C010C571F4FDE
:1017D000F80180819181A281B381892B8A2B8B2B87
:1017E00009F0ADC0EBD8D8016D937D938D939C9398
:1017F0001397F70187A18111B3C022242394312CC0
:1018000081E06701B8E8CB0ED11CF701E757FF4F25
:10181000FF87EE87970122573F4F398B288BD701DF
:10182000AE56BF4FBB8BAA8B3B96FD8BEC8B285FD4
:101830003F4F3F8B2E8B1696B98FA88F3997FB871A
:10184000EA872A5031093B8F2A8F5096BD87AC8793
:101850007E96FD8FEC8F225E3F4F3F8F2E8F2F8223
:1018600099249A94920C20E230E03E832D83D70194
:101870001796AD90BC90189790E0FC01EE0FFF1FFB
:10188000E80FF91FEE0DFF1D428519966C911C8221
:101890001B821A8219828E010F5F1F4F9E012D5FDE
:1018A0003F4FC50151DB81110AC049815A816B81CB
:1018B0007C8186019E012B5F3F4FC5017FDC8D81BE
:1018C0009E81892BE9F0C114D104D1F0EE85FF850A
:1018D0008081D6019C91983009F0B1C0F701E20DEA
:1018E000F31D9281891709F4AAC08283882341F0ED
:1018F000D7019596ED91FC91309709F478C0199530
:10190000E4E02E16310409F053C180E06F960FB663
:10191000F894DEBF0FBECDBFDF91CF911F910F9125
:10192000FF90EF90DF90CF90BF90AF909F908F90FF
:101930007F906F905F904F903F902F9008953ED88A
:10194000D8018D909D90AD90BC90681979098A0955
:101950009B09693B7B40810591050CF043CF4DCF3E
:101960006701E8EACE0ED11C88E0D6018C934701CE
:10197000B9EA8B0E911CF40110825701FAEAAF0EFE
:10198000B11C8FE0D5018C93870105551F4F80EC6A
:10199000F8018083712CA601672DC70139DB739490
:1019A000F4E07F12F8CFD6011C92F4011082D50129
:1019B0001C9280E4F80180835701F3E0AF0EB11C64
:1019C00010E0D5018D915D01882321F0A601612FE2
:1019D000C7011EDB1F5F1430A1F70FCF3F8187E0E7
:1019E000323009F485E09FEF291A390A38CFE1E057
:1019F000F0E0992059F0B1E0E2E0F0E09B1631F020
:101A0000E2E09E1609F4D1C0E4E0F0E0EC51FF4FB3
:101A1000E491AC85BD851C92AC8DBD8D1C9288E097
:101A2000AE8DBF8D8C93D701A555BF4FEC5FE064A1
:101A3000EC934C855D85692DC701EADA61CF811190
:101A40001BC0AA85BB858C91837109F459CFEA8D9F
:101A5000FB8D8081823208F453CFF101EE0FFF1F1E
:101A6000E259FF4FEE0DFF1D8D919C91982789271C
:101A700098279183808344CF813009F041CFF701CB
:101A8000E20DF31D8281811102C080E88283A88962
:101A9000B9896D917D918D919C910E942E18910133
:101AA000220F331F39872887220D331D2E0F3F1F2A
:101AB000D90194966D937D938D939C939797A101F3
:101AC000440F551F440F551F240F351F5901B8E40B
:101AD000AB0EB11CAA89BB890D911C91D5010D9348
:101AE0001C935901BAE4AB0EB11CAC89BD890D91B0
:101AF0001C91D5010D931C935901BCE4AB0EB11C94
:101B0000AE89BF890D911C91D5010D931C93225B69
:101B10003F4FA88DB98D0D911C91D9010D931C9348
:101B20004E0D5F1DDA01D4968D909D90AD90BC90C6
:101B3000D797681579058A059B0509F4E1CEDF0181
:101B4000A958BF4F21E02C93AF01420D531DDA017C
:101B5000AA5BBF4F950184010095109520953095A3
:101B60008901222733272C0166247724042115219B
:101B70000D931C93811007C0662329F0DF01A15843
:101B8000BF4F31E03C93911006C0772321F0E55818
:101B9000FF4F21E02083A885B9854A0F5B1FFA011A
:101BA00064AB75AB86AB97ABABCEE3E0F0E02ECF8A
:101BB000BF81B13009F012CF83E015CFFC01019055
:101BC0000020E9F73197AF01481B590BBC018BE7A7
:101BD00092E00C94DF018F929F92AF92BF920F938D
:101BE0001F93CF93DF93CDB7DEB7A1970FB6F894CD
:101BF000DEBF0FBECDBF19A2423008F44AE08E010D
:101C00000F5D1F4F842E912CB12CA12CA5019401A6
:101C10000E94EF16E62FB901CA01EA30ECF4E05D4C
:101C2000D801EE938D01232B242B252B79F790E0FF
:101C300080E0109711F0CD01C1DFA1960FB6F894A6
:101C4000DEBF0FBECDBFDF91CF911F910F91BF902F
:101C5000AF909F908F900895E95CE2CF4F925F9292
:101C60006F927F928F929F92AF92BF92CF92DF92AC
:101C7000EF92FF920F931F93CF936B017C01742E11
:101C8000AC019B010E942218882391F084E392E02A
:101C9000CF911F910F91FF90EF90DF90CF90BF9069
:101CA000AF909F908F907F906F905F904F9086CF76
:101CB00046015701E894B7F82FEF3FEF4FE75FE792
:101CC000C501B4010E94221881110CC02FEF3FEF13
:101CD0004FE75FE7C501B40143D718161CF488E34A
:101CE00092E0D6CF2FEF3FEF4FE75FE4C701B60199
:101CF0000E941E1818161CF48CE392E0C9CF2FEF37
:101D00003FEF4FE75FECC701B6012AD787FDF4CF5D
:101D100020E030E0A901C701B60122D710E000E0C1
:101D200087FF0AC06DE28BE792E00E9474028C018B
:101D3000F7FAF094F7F8F094C0E060E070E080E02B
:101D40009FE37C1641F020E030E040E251E40E9445
:101D50008517CF5FF6CFA70196010E9421172B01AF
:101D60003C010E94F2174B015C014AE034DF7C0128
:101D7000E00EF11ECC23A1F1C501B401F5D69B0103
:101D8000AC01C301B2010E9420174B015C016EE25D
:101D90008BE792E00E947402E80EF91EC15000F138
:101DA00020E030E040E251E4C501B4013ED72B0110
:101DB0003C010E94F2174B01B12CA12C4AE0C50155
:101DC000B40109DFE80EF91EC501B401CDD69B01AF
:101DD000AC01C301B2010E9420174B015C01DECFB0
:101DE000C701CF911F910F91FF90EF90DF90CF909F
:101DF000BF90AF909F908F907F906F905F904F902B
:101E00000895DCCE1F920F920FB60F9211240BB6DD
:101E10000F922F933F934F935F936F937F938F9383
:101E20009F93AF93BF93EF93FF938BE792E00E9452
:101E30005202FF91EF91BF91AF919F918F917F914E
:101E40006F915F914F913F912F910F900BBE0F902B
:101E50000FBE0F901F9018951F920F920FB60F9202
:101E600011240BB60F922F938F939F93EF93FF93B1
:101E7000E0918B02F0918C028081E0919102F091CF
:101E8000920282FD1DC09081809194028F5F8F73BA
:101E900020919502821741F0E0919402F0E0E5581C
:101EA000FD4F958F80939402FF91EF919F918F91B9
:101EB0002F910F900BBE0F900FBE0F901F90189593
:101EC0008081F2CF1F920F920FB60F9211242F93A1
:101ED0003F938F939F93AF93BF9380916D029091A7
:101EE0006E02A0916F02B091700230916C0223E0FB
:101EF000230F2D3758F50196A11DB11D20936C02BB
:101F000080936D0290936E02A0936F02B093700263
:101F10008091710290917202A0917302B09174024B
:101F20000196A11DB11D8093710290937202A0933E
:101F30007302B0937402BF91AF919F918F913F91C3
:101F40002F910F900FBE0F901F90189526E8230F2A
:101F50000296A11DB11DD2CFCF93DF9310927E02C6
:101F600010927D0288EE93E0A0E0B0E080937F02C3
:101F700090938002A0938102B093820284E092E069
:101F800090937C0280937B0285EC90E09093880292
:101F90008093870284EC90E090938A028093890278
:101FA00080EC90E090938C0280938B0281EC90E027
:101FB00090938E0280938D0282EC90E09093900239
:101FC00080938F0286EC90E090939202809391022E
:101FD000109294021092950210929602109297021B
:101FE0008EE292E09093E6038093E5031092ED0376
:101FF00081E08093EE031092EF0387EE93E09093DD
:10200000EC038093EB031092E70388E08093E803EE
:102010008CE38093E9031092EA03E5EEF3E021E01C
:1020200087EE93E0158626871786948783873596F3
:1020300034E0E033F307B1F710925B0481E1809361
:10204000180386E192E0909337038093360385EE80
:1020500093E090933E0380933D0310923F031092D0
:102060005D03A6E3B3E090E080E01A961C921A9715
:10207000382F28E0811120E01B962C931B97FC0140
:10208000EE0FFF1FEF01C80FD91FCE5BDC4F288179
:102090002E7F2D7F2883311127C03FE0E80FF91FE5
:1020A000EE5BFC4F330F330F20812370232B2083F3
:1020B0000196139689309105C1F6EBE3F4E090E0C8
:1020C00080E021913191232B89F4880F991FFC0125
:1020D000E55CFB4F86E393E09183808381E080930E
:1020E0001903DF91CF91089531E0D8CF0196803167
:1020F000910539F7F3CFCF93DF93CDB7DEB767976D
:102100000FB6F894DEBF0FBECDBF789484B5826061
:1021100084BD84B5816084BD85B5826085BD85B58B
:10212000816085BD80916E00816080936E00109209
:102130008100809181008260809381008091810084
:102140008160809381008091800081608093800015
:102150008091B10084608093B1008091B000816073
:102160008093B00080919100826080939100809173
:1021700091008160809391008091900081608093B4
:1021800090008091A10082608093A1008091A100C5
:1021900081608093A1008091A00081608093A00065
:1021A00080912101826080932101809121018160D1
:1021B0008093210180912001816080932001809192
:1021C0007A00846080937A0080917A0082608093A4
:1021D0007A0080917A00816080937A0080917A0001
:1021E000806880937A001092C100E0918B02F09198
:1021F0008C0282E08083E0918702F0918802108255
:10220000E0918902F0918A0280E18083109293022A
:10221000E0918F02F091900286E08083E0918D0240
:10222000F0918E02808180618083E0918D02F09137
:102230008E02808188608083E0918D02F0918E0211
:10224000808180688083E0918D02F0918E02808190
:102250008F7D8083249A0E941D061FB7F894809179
:102260007502811124C0ECEFF1E08491E2E4F2E028
:102270009491E82FF0E0EE0FFF1FE355FE4FA5917C
:10228000B491EC91E92321F461E085E30E942903F4
:1022900085E30E94C0018CB580618CBD8CB58064E3
:1022A0008CBD84E30E94C00183E30E94C001809141
:1022B00075028F5F809375021FBF209A289A8091C4
:1022C00001018F7B8093010168E188E80E9420066C
:1022D00060E288E70E94200660E088E70E9420060E
:1022E00010E000E088E60E9465060F5F1F4F80FF48
:1022F00066C061EC88ED0E94200660E680ED0E94D9
:10230000200664E088EE0E94200688EE0E946506A2
:1023100082FFFBCF0E94550860E288EC0E942006F5
:1023200061E080E80E94200680E391E00E94C00204
:102330008DE20E94C00188E10E94C00189E10E94F3
:10234000C0018CE20E94C00186E10E94C00187E1C9
:102350000E94C0018FE20E94C0018CE10E94C00176
:102360008DE10E94C0018EE20E94C0018AE10E94BC
:10237000C0018BE10E94C0018DE00E94C0018091EC
:102380000001182F107486FD0CC088EC0E946506B1
:1023900085FF03C00E94550810E2612F88EC0E945F
:1023A000200680917A02813009F467C008F469C080
:1023B000823071F0833009F46EC010E020C00F3F0E
:1023C000100709F08FCF8BE491E00E94C002FFCF8D
:1023D00010E080911803807F803189F40E94DE0430
:1023E00068537F4F8F4F9F4F6093760270937702B1
:1023F000809378029093790290E2909318033BE3E4
:10240000632E34E0732E7301D7018D919D917D0170
:10241000009739F0DC01ED91FC910680F781E02D09
:102420001995BBE5EB16B4E0FB0671F78091180334
:10243000803409F467C088F5803209F44DC08033D8
:1024400009F45AC0813109F06DC010925B04F301A8
:10245000819191913F01009739F0DC01ED91FC9160
:102460000480F581E02D1995BBE56B16B4E07B0681
:1024700071F782E18093180355C033E1309318035C
:102480009CCF80911803807F803109F496CF81E141
:102490008093180392CF11E09CCF813509F401C2DB
:1024A000803809F411C28035E9F588EC0E94650690
:1024B00086FF38C081E5809318030E94DE046C5EBD
:1024C0007F4F8F4F9F4F6093760270937702809378
:1024D00078029093790226C00E94DE040091760271
:1024E000109177022091780230917902601B710B74
:1024F000820B930B97FD16C061E088EE0E942006C8
:1025000080E4B8CF88EE0E94650680FD0BC088EDA0
:102510000E946506682F686088ED0E942006E0E54D
:10252000E093180380913803882309F44AC080910E
:102530003903882309F445C06091880370918903A9
:10254000CB01805C904E81389E4368F0072E000CD2
:10255000880B990B0BD360932A0370932B03809302
:102560002C0390932D036091860370918703CB0118
:10257000805C904E81389E4368F0072E000C880BDB
:10258000990BF4D260932E0370932F038093300342
:102590009093310360918A0370918B03CB01805C2F
:1025A000904E81389E4368F0072E000C880B990BE3
:1025B000DDD260933203709333038093340390939E
:1025C000350340902A0350902B0360902C037090A9
:1025D0002D0380902E0390902F03A0903003B09095
:1025E0003103C0903203D0903303E0903403F09075
:1025F0003503A5019401C301B20122D4A7019601BC
:102600001FD460931A0370931B0380931C03909351
:102610001D03A5019401C301B20113D4A7019601C2
:1026200010D460931E0370931F0380932003909334
:102630002103C301B2019058A501940101D4A7015F
:102640009601FED3609322037093230380932403A7
:1026500090932503A3019201C501B401F1D3A70111
:102660009601EFD36093260370932703809328038A
:1026700090932903E9E8F1E08591949140917E03DC
:1026800050917F039C01209530952423352330936E
:102690007F0320937E0384239523892B31F080913F
:1026A000190391E0892780931903A2E3B0E0BF8B5F
:1026B000AE8B09E113E0812C912C540120E030E035
:1026C000A901F8016181728183819481B7D4980155
:1026D0002F5F3F4F790118160CF00CC283E592E092
:1026E00090DB4AE0C501B40176DA8DE592E089DB42
:1026F00080E492E086DB60E032E08316910409F426
:10270000EDC183E08816910409F4EEC191E08916C9
:10271000910409F4DDC186E10E94290361E087E1AB
:102720000E9429034FEF5FE7BE016A5E7F4FC7013A
:102730000E946001D80111966D937D938D939C93B7
:1027400014970C5F1F4FBFEF8B1A9B0AAB0ABB0A93
:10275000E4E08E169104A104B10409F0AFCF6091BA
:102760001A0370911B0380911C0390911D0335D4B3
:102770008CE20E94B50360911E0370911F0380914B
:1027800020039091210329D48DE20E94B50360912A
:1027900022037091230380912403909125031DD47B
:1027A0008EE20E94B5036091260370912703809109
:1027B00028039091290311D48FE20E94B50382E58A
:1027C00092E01FDB85E592E01CDB60911A037091BB
:1027D0001B0380911C0390911D0342E03FDA8AE5C0
:1027E00092E00FDB60911E0370911F038091200324
:1027F0009091210342E032DA80E692E002DB6091C0
:10280000220370912303809124039091250342E0D9
:1028100025DA86E692E0F5DA6091260370912703C7
:10282000809128039091290342E018DA10922A033C
:1028300010922B0310922C0310922D0310922E0352
:1028400010922F0310923003109231031092320332
:1028500010923303109234031092350310921A032E
:1028600010921B0310921C0310921D0310921E0362
:1028700010921F0310922003109221031092220342
:102880001092230310922403109225031092260322
:102890001092270310922803109229030E94F90234
:1028A0006ECD0E94DE04C0907602D0907702E09058
:1028B0007802F09079026C197D098E099F0997FDC5
:1028C00031CE80E8809318031B8AF8E0FC8B2CE360
:1028D0002D8B2090EB033090EC0383E190E08C0F84
:1028E0009D1F9093EC038093EB031093EF03A1E003
:1028F000B0E0AC0FBD1FBF93AF9392E1892E912C36
:1029000022E1A22EB12CCC24C394E12C06E020E8D5
:1029100040E060E085EE93E00E947A09082F309253
:10292000EC032092EB030F900F90811150C0C984EB
:10293000DA84AB84BC848D803E808BE3E82E84E017
:10294000F82E912CF70180819181009709F041C008
:102950009394F2E0EF0EF11C20E19212F3CFF30119
:1029600080819181009709F076C00F5FF2E06F0ED1
:10297000711C0031A1F78091EB039091EC03892B3E
:1029800009F459C01093EF0320E040E060E085EEC9
:1029900093E00E94AA05F82E882309F44CC0682F02
:1029A00085EE93E00E94FF05009709F444C0FC0106
:1029B00014836F2D85EE93E00E94280A082F882348
:1029C00009F484C06F2D85EE93E00E948905802F65
:1029D0002FC0DC01ED91FC910084F185E02D19956B
:1029E0008111B6CFF70180819181DC01ED91FC91DD
:1029F0000088F189E02D632D1995882309F4A8CF6B
:102A0000F70180819181DC01ED91FC910484F585D1
:102A1000E02DA501B6011995882379F0612F892D44
:102A20000E947F08813D09F493CF882309F44EC0AA
:102A3000823D09F477CD80EA1DCDF7018081918137
:102A4000DC01ED91FC910684F785E02D682D199548
:102A50008111E4CF7DCFDC01ED91FC910084F18503
:102A6000E02D1995811181CFF30180819181DC01E5
:102A7000ED91FC910088F189E02D632D199581116C
:102A800009C0612F802F0E947F08982F977F913D6A
:102A900061F66BCFF30180819181DC01ED91FC91B6
:102AA0000484F585E02DA501B601199581115DCF4E
:102AB000F30180819181DC01ED91FC910684F78521
:102AC000E02D682D19958823E1F24FCF80E9D2CC13
:102AD00088E10E94290361E089E122CE8AE10E9417
:102AE000290361E08BE11CCE8CE10E94290361E0A7
:102AF0008DE116CE83E592E084D94AE0C501B401A8
:102B00006AD88DE592E07DD989E492E07AD961E0D6
:102B1000B2E08B169104C1F0E3E08E169104D1F07F
:102B2000F1E08F16910451F086E10E94290360E0E4
:102B300087E10E94290341E050E8F6CD88E10E9438
:102B4000290360E089E1F5CF8AE10E94290360E072
:102B50008BE1EFCF8CE10E94290360E08DE1E9CFAA
:102B600040D008F481E00895E89409C097FB3EF452
:102B700090958095709561957F4F8F4F9F4F9923CA
:102B8000A9F0F92F96E9BB279395F6958795779548
:102B90006795B795F111F8CFFAF4BB0F11F460FF08
:102BA0001BC06F5F7F4F8F4F9F4F16C0882311F060
:102BB00096E911C0772321F09EE8872F762F05C074
:102BC000662371F096E8862F70E060E02AF09A950F
:102BD000660F771F881FDAF7880F9695879597F904
:102BE0000895990F0008550FAA0BE0E8FEEF16169E
:102BF0001706E807F907C0F012161306E407F507F1
:102C000098F0621B730B840B950B39F40A2661F064
:102C1000232B242B252B21F408950A2609F4A14007
:102C2000A6958FEF811D811D08950BD078C069D0C6
:102C300028F06ED018F0952309F05AC05FC0112417
:102C4000A2C07ED0A0F3959FD1F3950F50E0551F01
:102C5000629FF001729FBB27F00DB11D639FAA27F1
:102C6000F00DB11DAA1F649F6627B00DA11D661F40
:102C7000829F2227B00DA11D621F739FB00DA11D61
:102C8000621F839FA00D611D221F749F3327A00D1B
:102C9000611D231F849F600D211D822F762F6A2FB7
:102CA00011249F5750408AF0E1F088234AF0EE0F3C
:102CB000FF1FBB1F661F771F881F91505040A9F749
:102CC0009E3F510570F014C05EC05F3FECF3983E2C
:102CD000DCF3869577956795B795F795E7959F5FB0
:102CE000C1F7FE2B880F911D9695879597F908954A
:102CF00097F99F6780E870E060E008959FEF80ECAF
:102D0000089500240A941616170618060906089551
:102D100000240A9412161306140605060895092EB7
:102D20000394000C11F4882352F0BB0F40F4BF2B26
:102D300011F460FF04C06F5F7F4F8F4F9F4F089566
:102D400057FD9058440F551F59F05F3F71F047955C
:102D5000880F97FB991F61F09F3F79F08795089541
:102D6000121613061406551FF2CF4695F1DF08C060
:102D7000161617061806991FF1CF8695710561057D
:102D800008940895E894BB2766277727CB0197F925
:102D90000895052E97FB16F400940FD057FD05D02B
:102DA0001ED007FC02D046F408C0509540953095DF
:102DB00021953F4F4F4F5F4F0895909580957095A7
:102DC00061957F4F8F4F9F4F08952BD0A59F900DFA
:102DD000B49F900DA49F800D911D11240895A1E230
:102DE0001A2EAA1BBB1BFD010DC0AA1FBB1FEE1F85
:102DF000FF1FA217B307E407F50720F0A21BB30BD0
:102E0000E40BF50B661F771F881F991F1A9469F74B
:102E100060957095809590959B01AC01BD01CF01A7
:102E20000895A29FB001B39FC001A39F700D811DA3
:102E30001124911DB29F700D811D1124911D0895C3
:102E40005058BB27AA270ED06ACF5BDF30F060DF77
:102E500020F031F49F3F11F41EF450CF0EF4E095B2
:102E6000E7FB46CFE92F6CDF80F3BA1762077307E1
:102E70008407950718F071F49EF584CF0EF4E09561
:102E80000B2EBA2FA02D0B01B90190010C01CA0124
:102E9000A0011124FF27591B99F0593F50F4503ECF
:102EA00068F11A16F040A22F232F342F4427585FC1
:102EB000F3CF469537952795A795F0405395C9F7D9
:102EC0007EF41F16BA0B620B730B840BBAF0915091
:102ED000A1F0FF0FBB1F661F771F881FC2F70EC030
:102EE000BA0F621F731F841F48F487957795679503
:102EF000B795F7959E3F08F0B3CF9395880F08F0EC
:102F00009927EE0F9795879508950CD008CF00DF8D
:102F100040F0F7DE30F021F45F3F19F0E9CE5111B7
:102F200032CFECCE0DDF98F39923C9F35523B1F3DB
:102F3000951B550BBB27AA2762177307840738F028
:102F40009F5F5F4F220F331F441FAA1FA9F333D087
:102F50000E2E3AF0E0E830D091505040E695001C3B
:102F6000CAF729D0FE2F27D0660F771F881FBB1FF7
:102F7000261737074807AB07B0E809F0BB0B802DD1
:102F8000BF01FF2793585F4F2AF09E3F510568F01D
:102F9000AFCEF9CE5F3FECF3983EDCF386957795A4
:102FA0006795B795F7959F5FC9F7880F911D96951F
:102FB000879597F90895E1E0660F771F881FBB1F7B
:102FC000621773078407BA0720F0621B730B840B28
:102FD000BA0BEE1F88F7E095089504D06894B111FC
:102FE000D2CE0895B5DE88F09F5790F0B92F99277B
:102FF000B751A0F0D1F0660F771F881F991F1AF004
:10300000BA95C9F712C0B13081F0BCDEB1E00895C5
:10301000B9CE672F782F8827B85F39F0B93FCCF346
:10302000869577956795B395D9F73EF490958095F9
:10303000709561957F4F8F4F9F4F0895D2DD08F4B3
:103040008FEF0895CEDD880B990B0895EE0FFF1FCB
:10305000881F8BBF0790F691E02D1994692796275A
:1030600069277827872778270895DC0101C06D93A9
:0C30700041505040E0F70895F894FFCF65
:10307C00000000007402DF010C02DA023D021B02A8
:10308C002F02000000000D0B4F0AEA04C40B1B05B5
:10309C001A06020516061806180500000000FF05A2
:1030AC00AA0589056E616E00696E66006F76660012
:1030BC00506F736974697665004E656761746976E3
:1030CC0065000A0A0046523A20000A464C3A200093
:0C30DC000A52523A20000A524C3A2000DE
:00000001FF
